{
  "_format": "hh-sol-artifact-1",
  "contractName": "TicketNFT",
  "sourceName": "contracts/TicketNFT.sol",
  "abi": [
    {
      "inputs": [
        {
          "internalType": "string",
          "name": "festName",
          "type": "string"
        },
        {
          "internalType": "string",
          "name": "FestSymbol",
          "type": "string"
        },
        {
          "internalType": "uint256",
          "name": "ticketPrice",
          "type": "uint256"
        },
        {
          "internalType": "uint256",
          "name": "totalSupply",
          "type": "uint256"
        },
        {
          "internalType": "address",
          "name": "organiser",
          "type": "address"
        }
      ],
      "stateMutability": "nonpayable",
      "type": "constructor"
    },
    {
      "anonymous": false,
      "inputs": [
        {
          "indexed": true,
          "internalType": "address",
          "name": "owner",
          "type": "address"
        },
        {
          "indexed": true,
          "internalType": "address",
          "name": "approved",
          "type": "address"
        },
        {
          "indexed": true,
          "internalType": "uint256",
          "name": "tokenId",
          "type": "uint256"
        }
      ],
      "name": "Approval",
      "type": "event"
    },
    {
      "anonymous": false,
      "inputs": [
        {
          "indexed": true,
          "internalType": "address",
          "name": "owner",
          "type": "address"
        },
        {
          "indexed": true,
          "internalType": "address",
          "name": "operator",
          "type": "address"
        },
        {
          "indexed": false,
          "internalType": "bool",
          "name": "approved",
          "type": "bool"
        }
      ],
      "name": "ApprovalForAll",
      "type": "event"
    },
    {
      "anonymous": false,
      "inputs": [
        {
          "indexed": true,
          "internalType": "bytes32",
          "name": "role",
          "type": "bytes32"
        },
        {
          "indexed": true,
          "internalType": "bytes32",
          "name": "previousAdminRole",
          "type": "bytes32"
        },
        {
          "indexed": true,
          "internalType": "bytes32",
          "name": "newAdminRole",
          "type": "bytes32"
        }
      ],
      "name": "RoleAdminChanged",
      "type": "event"
    },
    {
      "anonymous": false,
      "inputs": [
        {
          "indexed": true,
          "internalType": "bytes32",
          "name": "role",
          "type": "bytes32"
        },
        {
          "indexed": true,
          "internalType": "address",
          "name": "account",
          "type": "address"
        },
        {
          "indexed": true,
          "internalType": "address",
          "name": "sender",
          "type": "address"
        }
      ],
      "name": "RoleGranted",
      "type": "event"
    },
    {
      "anonymous": false,
      "inputs": [
        {
          "indexed": true,
          "internalType": "bytes32",
          "name": "role",
          "type": "bytes32"
        },
        {
          "indexed": true,
          "internalType": "address",
          "name": "account",
          "type": "address"
        },
        {
          "indexed": true,
          "internalType": "address",
          "name": "sender",
          "type": "address"
        }
      ],
      "name": "RoleRevoked",
      "type": "event"
    },
    {
      "anonymous": false,
      "inputs": [
        {
          "indexed": true,
          "internalType": "address",
          "name": "from",
          "type": "address"
        },
        {
          "indexed": true,
          "internalType": "address",
          "name": "to",
          "type": "address"
        },
        {
          "indexed": true,
          "internalType": "uint256",
          "name": "tokenId",
          "type": "uint256"
        }
      ],
      "name": "Transfer",
      "type": "event"
    },
    {
      "inputs": [],
      "name": "DEFAULT_ADMIN_ROLE",
      "outputs": [
        {
          "internalType": "bytes32",
          "name": "",
          "type": "bytes32"
        }
      ],
      "stateMutability": "view",
      "type": "function"
    },
    {
      "inputs": [],
      "name": "MINTER_ROLE",
      "outputs": [
        {
          "internalType": "bytes32",
          "name": "",
          "type": "bytes32"
        }
      ],
      "stateMutability": "view",
      "type": "function"
    },
    {
      "inputs": [
        {
          "internalType": "address",
          "name": "to",
          "type": "address"
        },
        {
          "internalType": "uint256",
          "name": "tokenId",
          "type": "uint256"
        }
      ],
      "name": "approve",
      "outputs": [],
      "stateMutability": "nonpayable",
      "type": "function"
    },
    {
      "inputs": [
        {
          "internalType": "address",
          "name": "owner",
          "type": "address"
        }
      ],
      "name": "balanceOf",
      "outputs": [
        {
          "internalType": "uint256",
          "name": "",
          "type": "uint256"
        }
      ],
      "stateMutability": "view",
      "type": "function"
    },
    {
      "inputs": [
        {
          "internalType": "uint256",
          "name": "numOfTickets",
          "type": "uint256"
        },
        {
          "internalType": "address",
          "name": "operator",
          "type": "address"
        }
      ],
      "name": "bulkLotteryTickets",
      "outputs": [],
      "stateMutability": "nonpayable",
      "type": "function"
    },
    {
      "inputs": [
        {
          "internalType": "uint256",
          "name": "numOfTickets",
          "type": "uint256"
        },
        {
          "internalType": "address",
          "name": "operator",
          "type": "address"
        }
      ],
      "name": "bulkMintTickets",
      "outputs": [],
      "stateMutability": "nonpayable",
      "type": "function"
    },
    {
      "inputs": [
        {
          "internalType": "uint256",
          "name": "tokenId",
          "type": "uint256"
        }
      ],
      "name": "getApproved",
      "outputs": [
        {
          "internalType": "address",
          "name": "",
          "type": "address"
        }
      ],
      "stateMutability": "view",
      "type": "function"
    },
    {
      "inputs": [],
      "name": "getLotteryNo",
      "outputs": [
        {
          "internalType": "uint256",
          "name": "",
          "type": "uint256"
        }
      ],
      "stateMutability": "view",
      "type": "function"
    },
    {
      "inputs": [],
      "name": "getNextSaleTicketId",
      "outputs": [
        {
          "internalType": "uint256",
          "name": "",
          "type": "uint256"
        }
      ],
      "stateMutability": "view",
      "type": "function"
    },
    {
      "inputs": [],
      "name": "getOrganiser",
      "outputs": [
        {
          "internalType": "address",
          "name": "",
          "type": "address"
        }
      ],
      "stateMutability": "view",
      "type": "function"
    },
    {
      "inputs": [
        {
          "internalType": "bytes32",
          "name": "role",
          "type": "bytes32"
        }
      ],
      "name": "getRoleAdmin",
      "outputs": [
        {
          "internalType": "bytes32",
          "name": "",
          "type": "bytes32"
        }
      ],
      "stateMutability": "view",
      "type": "function"
    },
    {
      "inputs": [
        {
          "internalType": "uint256",
          "name": "ticketId",
          "type": "uint256"
        }
      ],
      "name": "getSellingPrice",
      "outputs": [
        {
          "internalType": "uint256",
          "name": "",
          "type": "uint256"
        }
      ],
      "stateMutability": "view",
      "type": "function"
    },
    {
      "inputs": [
        {
          "internalType": "uint256",
          "name": "ticketId",
          "type": "uint256"
        }
      ],
      "name": "getTicketDetails",
      "outputs": [
        {
          "internalType": "uint256",
          "name": "purchasePrice",
          "type": "uint256"
        },
        {
          "internalType": "uint256",
          "name": "sellingPrice",
          "type": "uint256"
        },
        {
          "internalType": "bool",
          "name": "forSale",
          "type": "bool"
        },
        {
          "internalType": "bool",
          "name": "canTransfer",
          "type": "bool"
        },
        {
          "internalType": "string",
          "name": "status",
          "type": "string"
        }
      ],
      "stateMutability": "view",
      "type": "function"
    },
    {
      "inputs": [],
      "name": "getTicketPrice",
      "outputs": [
        {
          "internalType": "uint256",
          "name": "",
          "type": "uint256"
        }
      ],
      "stateMutability": "view",
      "type": "function"
    },
    {
      "inputs": [],
      "name": "getTicketsForBulk",
      "outputs": [
        {
          "internalType": "uint256[]",
          "name": "",
          "type": "uint256[]"
        }
      ],
      "stateMutability": "view",
      "type": "function"
    },
    {
      "inputs": [],
      "name": "getTicketsForLott",
      "outputs": [
        {
          "internalType": "uint256[]",
          "name": "",
          "type": "uint256[]"
        }
      ],
      "stateMutability": "view",
      "type": "function"
    },
    {
      "inputs": [],
      "name": "getTicketsForSale",
      "outputs": [
        {
          "internalType": "uint256[]",
          "name": "",
          "type": "uint256[]"
        }
      ],
      "stateMutability": "view",
      "type": "function"
    },
    {
      "inputs": [
        {
          "internalType": "address",
          "name": "customer",
          "type": "address"
        }
      ],
      "name": "getTicketsOfCustomer",
      "outputs": [
        {
          "internalType": "uint256[]",
          "name": "",
          "type": "uint256[]"
        }
      ],
      "stateMutability": "view",
      "type": "function"
    },
    {
      "inputs": [
        {
          "internalType": "bytes32",
          "name": "role",
          "type": "bytes32"
        },
        {
          "internalType": "address",
          "name": "account",
          "type": "address"
        }
      ],
      "name": "grantRole",
      "outputs": [],
      "stateMutability": "nonpayable",
      "type": "function"
    },
    {
      "inputs": [
        {
          "internalType": "bytes32",
          "name": "role",
          "type": "bytes32"
        },
        {
          "internalType": "address",
          "name": "account",
          "type": "address"
        }
      ],
      "name": "hasRole",
      "outputs": [
        {
          "internalType": "bool",
          "name": "",
          "type": "bool"
        }
      ],
      "stateMutability": "view",
      "type": "function"
    },
    {
      "inputs": [
        {
          "internalType": "address",
          "name": "owner",
          "type": "address"
        },
        {
          "internalType": "address",
          "name": "operator",
          "type": "address"
        }
      ],
      "name": "isApprovedForAll",
      "outputs": [
        {
          "internalType": "bool",
          "name": "",
          "type": "bool"
        }
      ],
      "stateMutability": "view",
      "type": "function"
    },
    {
      "inputs": [
        {
          "internalType": "address",
          "name": "buyer",
          "type": "address"
        }
      ],
      "name": "isCustomerExist",
      "outputs": [
        {
          "internalType": "bool",
          "name": "",
          "type": "bool"
        }
      ],
      "stateMutability": "view",
      "type": "function"
    },
    {
      "inputs": [],
      "name": "name",
      "outputs": [
        {
          "internalType": "string",
          "name": "",
          "type": "string"
        }
      ],
      "stateMutability": "view",
      "type": "function"
    },
    {
      "inputs": [
        {
          "internalType": "uint256",
          "name": "tokenId",
          "type": "uint256"
        }
      ],
      "name": "ownerOf",
      "outputs": [
        {
          "internalType": "address",
          "name": "",
          "type": "address"
        }
      ],
      "stateMutability": "view",
      "type": "function"
    },
    {
      "inputs": [
        {
          "internalType": "bytes32",
          "name": "role",
          "type": "bytes32"
        },
        {
          "internalType": "address",
          "name": "account",
          "type": "address"
        }
      ],
      "name": "renounceRole",
      "outputs": [],
      "stateMutability": "nonpayable",
      "type": "function"
    },
    {
      "inputs": [
        {
          "internalType": "bytes32",
          "name": "role",
          "type": "bytes32"
        },
        {
          "internalType": "address",
          "name": "account",
          "type": "address"
        }
      ],
      "name": "revokeRole",
      "outputs": [],
      "stateMutability": "nonpayable",
      "type": "function"
    },
    {
      "inputs": [
        {
          "internalType": "address",
          "name": "from",
          "type": "address"
        },
        {
          "internalType": "address",
          "name": "to",
          "type": "address"
        },
        {
          "internalType": "uint256",
          "name": "tokenId",
          "type": "uint256"
        }
      ],
      "name": "safeTransferFrom",
      "outputs": [],
      "stateMutability": "nonpayable",
      "type": "function"
    },
    {
      "inputs": [
        {
          "internalType": "address",
          "name": "from",
          "type": "address"
        },
        {
          "internalType": "address",
          "name": "to",
          "type": "address"
        },
        {
          "internalType": "uint256",
          "name": "tokenId",
          "type": "uint256"
        },
        {
          "internalType": "bytes",
          "name": "_data",
          "type": "bytes"
        }
      ],
      "name": "safeTransferFrom",
      "outputs": [],
      "stateMutability": "nonpayable",
      "type": "function"
    },
    {
      "inputs": [
        {
          "internalType": "address",
          "name": "buyer",
          "type": "address"
        },
        {
          "internalType": "uint256",
          "name": "saleTicketId",
          "type": "uint256"
        }
      ],
      "name": "secondaryTransferTicket",
      "outputs": [],
      "stateMutability": "nonpayable",
      "type": "function"
    },
    {
      "inputs": [
        {
          "internalType": "address",
          "name": "operator",
          "type": "address"
        },
        {
          "internalType": "bool",
          "name": "approved",
          "type": "bool"
        }
      ],
      "name": "setApprovalForAll",
      "outputs": [],
      "stateMutability": "nonpayable",
      "type": "function"
    },
    {
      "inputs": [
        {
          "internalType": "uint256",
          "name": "ticketId",
          "type": "uint256"
        },
        {
          "internalType": "uint256",
          "name": "sellingPrice",
          "type": "uint256"
        },
        {
          "internalType": "address",
          "name": "operator",
          "type": "address"
        }
      ],
      "name": "setSaleDetails",
      "outputs": [],
      "stateMutability": "nonpayable",
      "type": "function"
    },
    {
      "inputs": [
        {
          "internalType": "bytes4",
          "name": "interfaceId",
          "type": "bytes4"
        }
      ],
      "name": "supportsInterface",
      "outputs": [
        {
          "internalType": "bool",
          "name": "",
          "type": "bool"
        }
      ],
      "stateMutability": "view",
      "type": "function"
    },
    {
      "inputs": [],
      "name": "symbol",
      "outputs": [
        {
          "internalType": "string",
          "name": "",
          "type": "string"
        }
      ],
      "stateMutability": "view",
      "type": "function"
    },
    {
      "inputs": [],
      "name": "ticketCounts",
      "outputs": [
        {
          "internalType": "uint256",
          "name": "",
          "type": "uint256"
        }
      ],
      "stateMutability": "view",
      "type": "function"
    },
    {
      "inputs": [
        {
          "internalType": "uint256",
          "name": "tokenId",
          "type": "uint256"
        }
      ],
      "name": "tokenURI",
      "outputs": [
        {
          "internalType": "string",
          "name": "",
          "type": "string"
        }
      ],
      "stateMutability": "view",
      "type": "function"
    },
    {
      "inputs": [
        {
          "internalType": "address",
          "name": "from",
          "type": "address"
        },
        {
          "internalType": "address",
          "name": "to",
          "type": "address"
        },
        {
          "internalType": "uint256",
          "name": "tokenId",
          "type": "uint256"
        }
      ],
      "name": "transferFrom",
      "outputs": [],
      "stateMutability": "nonpayable",
      "type": "function"
    },
    {
      "inputs": [
        {
          "internalType": "address",
          "name": "buyer",
          "type": "address"
        }
      ],
      "name": "transferLotteryTicket",
      "outputs": [],
      "stateMutability": "nonpayable",
      "type": "function"
    },
    {
      "inputs": [
        {
          "internalType": "address",
          "name": "buyer",
          "type": "address"
        }
      ],
      "name": "transferTicket",
      "outputs": [],
      "stateMutability": "nonpayable",
      "type": "function"
    }
  ],
  "bytecode": "0x60806040523480156200001157600080fd5b50604051620034a6380380620034a68339810160408190526200003491620002d2565b8451859085906200004d90600190602085019062000179565b5080516200006390600290602084019062000179565b505050620000987f9f2df0fed2c77648de5860a4cc508cd0818c85b8b8a1ab4ceeef8d981c8956a682620000c960201b60201c565b600f92909255601055600a80546001600160a01b0319166001600160a01b0390921691909117905550620003c39050565b620000d58282620000d9565b5050565b6000828152602081815260408083206001600160a01b038516845290915290205460ff16620000d5576000828152602081815260408083206001600160a01b03851684529091529020805460ff19166001179055620001353390565b6001600160a01b0316816001600160a01b0316837f2f8788117e7eff1d82e926ec794901d17c78024a50270940304540a733656f0d60405160405180910390a45050565b828054620001879062000370565b90600052602060002090601f016020900481019282620001ab5760008555620001f6565b82601f10620001c657805160ff1916838001178555620001f6565b82800160010185558215620001f6579182015b82811115620001f6578251825591602001919060010190620001d9565b506200020492915062000208565b5090565b5b8082111562000204576000815560010162000209565b600082601f83011262000230578081fd5b81516001600160401b03808211156200024d576200024d620003ad565b604051601f8301601f19908116603f01168101908282118183101715620002785762000278620003ad565b8160405283815260209250868385880101111562000294578485fd5b8491505b83821015620002b7578582018301518183018401529082019062000298565b83821115620002c857848385830101525b9695505050505050565b600080600080600060a08688031215620002ea578081fd5b85516001600160401b038082111562000301578283fd5b6200030f89838a016200021f565b9650602088015191508082111562000325578283fd5b5062000334888289016200021f565b6040880151606089015160808a0151929750909550935090506001600160a01b038116811462000362578182fd5b809150509295509295909350565b600181811c908216806200038557607f821691505b60208210811415620003a757634e487b7160e01b600052602260045260246000fd5b50919050565b634e487b7160e01b600052604160045260246000fd5b6130d380620003d36000396000f3fe608060405234801561001057600080fd5b50600436106102925760003560e01c806370a0823111610160578063abb95b74116100d8578063d45be3ae1161008c578063d547741f11610071578063d547741f1461058b578063e3278ad61461059e578063e985e9c5146105a657610292565b8063d45be3ae14610551578063d53913931461056457610292565b8063b88d4fde116100bd578063b88d4fde14610518578063c83b45901461052b578063c87b56dd1461053e57610292565b8063abb95b74146104fd578063b632c9e41461050557610292565b806395d89b411161012f5780639ad570f6116101145780639ad570f6146104da578063a217fddf146104e2578063a22cb465146104ea57610292565b806395d89b41146104bf57806399411bee146104c757610292565b806370a082311461045a578063750e024c1461046d57806387bb7ae01461048057806391d148541461048857610292565b806324c141601161020e5780634644be60116101c25780636352211e116101a75780636352211e1461042157806364d7f44f146104345780636afadefb1461044757610292565b80634644be60146103eb578063569e35db146103fe57610292565b806335fe12d8116101f357806335fe12d8146103b057806336568abe146103c557806342842e0e146103d857610292565b806324c14160146103795780632f2ff15d1461039d57610292565b8063095ea7b3116102655780630cdf1df71161024a5780630cdf1df71461033b57806323b872dd14610343578063248a9ca31461035657610292565b8063095ea7b3146103155780630b7055781461032a57610292565b806301ffc9a714610297578063065366ee146102bf57806306fdde03146102d5578063081812fc146102ea575b600080fd5b6102aa6102a5366004612d21565b6105e2565b60405190151581526020015b60405180910390f35b6102c76105f5565b6040519081526020016102b6565b6102dd610630565b6040516102b69190612ee9565b6102fd6102f8366004612ce7565b6106c2565b6040516001600160a01b0390911681526020016102b6565b610328610323366004612cbe565b61075c565b005b600a546001600160a01b03166102fd565b6011546102c7565b610328610351366004612b74565b61088e565b6102c7610364366004612ce7565b60009081526020819052604090206001015490565b61038c610387366004612ce7565b610915565b6040516102b6959493929190612efc565b6103286103ab366004612cff565b6109ef565b6103b8610a14565b6040516102b69190612ea5565b6103286103d3366004612cff565b610a6b565b6103286103e6366004612b74565b610af7565b6103286103f9366004612cff565b610b12565b6102c761040c366004612ce7565b60009081526012602052604090206001015490565b6102fd61042f366004612ce7565b610c1b565b610328610442366004612d59565b610ca6565b610328610455366004612b28565b610ee6565b6102c7610468366004612b28565b611040565b61032861047b366004612cff565b6110da565b600f546102c7565b6102aa610496366004612cff565b6000918252602082815260408084206001600160a01b0393909316845291905290205460ff1690565b6102dd6111de565b6103286104d5366004612b28565b6111ed565b6103b861121d565b6102c7600081565b6103286104f8366004612c84565b611273565b6103b861127e565b6103b8610513366004612b28565b6112d4565b610328610526366004612baf565b611340565b610328610539366004612cbe565b6113c8565b6102dd61054c366004612ce7565b6115db565b6102aa61055f366004612b28565b6116d1565b6102c77f9f2df0fed2c77648de5860a4cc508cd0818c85b8b8a1ab4ceeef8d981c8956a681565b610328610599366004612cff565b61174a565b6102c761176f565b6102aa6105b4366004612b42565b6001600160a01b03918216600090815260066020908152604080832093909416825291909152205460ff1690565b60006105ed8261177f565b90505b919050565b6000600c61060260085490565b8154811061062057634e487b7160e01b600052603260045260246000fd5b9060005260206000200154905090565b60606001805461063f90612fdb565b80601f016020809104026020016040519081016040528092919081815260200182805461066b90612fdb565b80156106b85780601f1061068d576101008083540402835291602001916106b8565b820191906000526020600020905b81548152906001019060200180831161069b57829003601f168201915b5050505050905090565b6000818152600360205260408120546001600160a01b03166107405760405162461bcd60e51b815260206004820152602c60248201527f4552433732313a20617070726f76656420717565727920666f72206e6f6e657860448201526b34b9ba32b73a103a37b5b2b760a11b60648201526084015b60405180910390fd5b506000908152600560205260409020546001600160a01b031690565b600061076782610c1b565b9050806001600160a01b0316836001600160a01b031614156107f15760405162461bcd60e51b815260206004820152602160248201527f4552433732313a20617070726f76616c20746f2063757272656e74206f776e6560448201527f72000000000000000000000000000000000000000000000000000000000000006064820152608401610737565b336001600160a01b038216148061080d575061080d81336105b4565b61087f5760405162461bcd60e51b815260206004820152603860248201527f4552433732313a20617070726f76652063616c6c6572206973206e6f74206f7760448201527f6e6572206e6f7220617070726f76656420666f7220616c6c00000000000000006064820152608401610737565b61088983836117f1565b505050565b610898338261185f565b61090a5760405162461bcd60e51b815260206004820152603160248201527f4552433732313a207472616e736665722063616c6c6572206973206e6f74206f60448201527f776e6572206e6f7220617070726f7665640000000000000000000000000000006064820152608401610737565b610889838383611956565b6000818152601260205260408120805460018201546002830154600390930180548594859485946060949193909260ff808216936101009092041691819061095c90612fdb565b80601f016020809104026020016040519081016040528092919081815260200182805461098890612fdb565b80156109d55780601f106109aa576101008083540402835291602001916109d5565b820191906000526020600020905b8154815290600101906020018083116109b857829003601f168201915b505050505090509450945094509450945091939590929450565b600082815260208190526040902060010154610a0a81611b23565b6108898383611b30565b6060600c8054806020026020016040519081016040528092919081815260200182805480156106b857602002820191906000526020600020905b815481526020019060010190808311610a4e575050505050905090565b6001600160a01b0381163314610ae95760405162461bcd60e51b815260206004820152602f60248201527f416363657373436f6e74726f6c3a2063616e206f6e6c792072656e6f756e636560448201527f20726f6c657320666f722073656c6600000000000000000000000000000000006064820152608401610737565b610af38282611bce565b5050565b61088983838360405180602001604052806000815250611340565b60105460075410610b655760405162461bcd60e51b815260206004820152601e60248201527f4d6178696d756d207469636b6574206c696d69742065786365656465642100006044820152606401610737565b6103e882610b7161176f565b610b7b9190612f36565b1115610bef5760405162461bcd60e51b815260206004820152602e60248201527f4e756d626572206f66207469636b6574732065786365656473206d6178696d7560448201527f6d207469636b657420636f756e740000000000000000000000000000000000006064820152608401610737565b601182905560005b8281101561088957610c0882611c4d565b5080610c1381613016565b915050610bf7565b6000818152600360205260408120546001600160a01b0316806105ed5760405162461bcd60e51b815260206004820152602960248201527f4552433732313a206f776e657220717565727920666f72206e6f6e657869737460448201527f656e7420746f6b656e00000000000000000000000000000000000000000000006064820152608401610737565b60008381526012602052604090208054600290910154610100900460ff16610d105760405162461bcd60e51b815260206004820152601c60248201527f546865207469636b65742063616e6e6f742062652072652d73656c6c000000006044820152606401610737565b826064610d1e836082612f62565b610d289190612f4e565b11610d805760405162461bcd60e51b815260206004820152602260248201527f52652d73656c6c696e67207072696365206973206d6f7265207468616e203133604482015261302560f01b6064820152608401610737565b610daa7f9f2df0fed2c77648de5860a4cc508cd0818c85b8b8a1ab4ceeef8d981c8956a633610496565b15610e1d5760405162461bcd60e51b815260206004820152602f60248201527f46756e6374696f6e616c697479206f6e6c7920616c6c6f77656420666f72207360448201527f65636f6e64617279206d61726b657400000000000000000000000000000000006064820152608401610737565b6000848152601260208181526040808420600180820189905560028201805461ffff191690911790558151808301909252601382527f57616974696e6720466f722052652d73656c6c00000000000000000000000000828401908152948990529290915251610e929260039092019190612a78565b50610e9c84611de8565b610ed657600c80546001810182556000919091527fdf6966c971051c3d54ec59162606531493a51404a002842f56009d7e5cf4a8c7018490555b610ee0828561075c565b50505050565b6000610ef160085490565b90506000600d8281548110610f1657634e487b7160e01b600052603260045260246000fd5b90600052602060002001549050610f31600880546001019055565b610f3a81610c1b565b6001600160a01b0316336001600160a01b031614610f9a5760405162461bcd60e51b815260206004820152601d60248201527f4f6e6c7920696e697469616c20707572636861736520616c6c6f7765640000006044820152606401610737565b610fa4838261075c565b610fb7610fb082610c1b565b848361088e565b610fc0836116d1565b61101057600b80546001810182556000919091527f0175b7a638427703f0dbe7bb9bbf987a2551717b34e79f33b5b1008d1fa01db90180546001600160a01b0319166001600160a01b0385161790555b6001600160a01b039092166000908152601360209081526040822080546001810182559083529120019190915550565b60006001600160a01b0382166110be5760405162461bcd60e51b815260206004820152602a60248201527f4552433732313a2062616c616e636520717565727920666f7220746865207a6560448201527f726f2061646472657373000000000000000000000000000000000000000000006064820152608401610737565b506001600160a01b031660009081526004602052604090205490565b6010546007541061112d5760405162461bcd60e51b815260206004820152601e60248201527f4d6178696d756d207469636b6574206c696d69742065786365656465642100006044820152606401610737565b6103e88261113961176f565b6111439190612f36565b11156111b75760405162461bcd60e51b815260206004820152602e60248201527f4e756d626572206f66207469636b6574732065786365656473206d6178696d7560448201527f6d207469636b657420636f756e740000000000000000000000000000000000006064820152608401610737565b60005b82811015610889576111cb82611e45565b50806111d681613016565b9150506111ba565b60606002805461063f90612fdb565b60006111f860095490565b90506000600e8281548110610f1657634e487b7160e01b600052603260045260246000fd5b6060600e8054806020026020016040519081016040528092919081815260200182805480156106b85760200282019190600052602060002090815481526020019060010190808311610a4e575050505050905090565b610af3338383611fd7565b6060600d8054806020026020016040519081016040528092919081815260200182805480156106b85760200282019190600052602060002090815481526020019060010190808311610a4e575050505050905090565b6001600160a01b03811660009081526013602090815260409182902080548351818402810184019094528084526060939283018282801561133457602002820191906000526020600020905b815481526020019060010190808311611320575b50505050509050919050565b61134a338361185f565b6113bc5760405162461bcd60e51b815260206004820152603160248201527f4552433732313a207472616e736665722063616c6c6572206973206e6f74206f60448201527f776e6572206e6f7220617070726f7665640000000000000000000000000000006064820152608401610737565b610ee0848484846120a6565b600081815260126020526040902080546001909101548291908060646113ef84606e612f62565b6113f99190612f4e565b6114039084612f36565b1161145b5760405162461bcd60e51b815260206004820152602260248201527f52652d73656c6c696e67207072696365206973206d6f7265207468616e203131604482015261302560f01b6064820152608401610737565b600061146685610c1b565b60008681526012602052604090206001015490915061148682888861088e565b61148f876116d1565b6114df57600b80546001810182556000919091527f0175b7a638427703f0dbe7bb9bbf987a2551717b34e79f33b5b1008d1fa01db90180546001600160a01b0319166001600160a01b0389161790555b6001600160a01b038716600090815260136020908152604082208054600181018255908352912001869055611514828761212f565b61151d866122ae565b6040805160a081018252828152600060208083018281528385018381526060850184815286518088018852601481527f5472616e73666572656420746f206f746865727300000000000000000000000081860152608087019081528d86526012855296909420855181559151600183015551600282018054945115156101000261ff00199215159290921661ffff19909516949094171790925592518051929391926115cf9260038501920190612a78565b50505050505050505050565b6000818152600360205260409020546060906001600160a01b03166116685760405162461bcd60e51b815260206004820152602f60248201527f4552433732314d657461646174613a2055524920717565727920666f72206e6f60448201527f6e6578697374656e7420746f6b656e00000000000000000000000000000000006064820152608401610737565b600061167f60408051602081019091526000815290565b9050600081511161169f57604051806020016040528060008152506116ca565b806116a9846123c7565b6040516020016116ba929190612db9565b6040516020818303038152906040525b9392505050565b6000805b600b5481101561174157826001600160a01b0316600b828154811061170a57634e487b7160e01b600052603260045260246000fd5b6000918252602090912001546001600160a01b0316141561172f5760019150506105f0565b8061173981613016565b9150506116d5565b50600092915050565b60008281526020819052604090206001015461176581611b23565b6108898383611bce565b600061177a60075490565b905090565b60006001600160e01b031982167f80ac58cd0000000000000000000000000000000000000000000000000000000014806117e257506001600160e01b031982167f5b5e139f00000000000000000000000000000000000000000000000000000000145b806105ed57506105ed826124e2565b600081815260056020526040902080546001600160a01b0319166001600160a01b038416908117909155819061182682610c1b565b6001600160a01b03167f8c5be1e5ebec7d5bd14f71427d1e84f3dd0314c0f7b2291e5b200ac8c7c3b92560405160405180910390a45050565b6000818152600360205260408120546001600160a01b03166118d85760405162461bcd60e51b815260206004820152602c60248201527f4552433732313a206f70657261746f7220717565727920666f72206e6f6e657860448201526b34b9ba32b73a103a37b5b2b760a11b6064820152608401610737565b60006118e383610c1b565b9050806001600160a01b0316846001600160a01b0316148061192a57506001600160a01b0380821660009081526006602090815260408083209388168352929052205460ff165b8061194e5750836001600160a01b0316611943846106c2565b6001600160a01b0316145b949350505050565b826001600160a01b031661196982610c1b565b6001600160a01b0316146119e55760405162461bcd60e51b815260206004820152602560248201527f4552433732313a207472616e736665722066726f6d20696e636f72726563742060448201527f6f776e65720000000000000000000000000000000000000000000000000000006064820152608401610737565b6001600160a01b038216611a605760405162461bcd60e51b8152602060048201526024808201527f4552433732313a207472616e7366657220746f20746865207a65726f2061646460448201527f72657373000000000000000000000000000000000000000000000000000000006064820152608401610737565b611a6b6000826117f1565b6001600160a01b0383166000908152600460205260408120805460019290611a94908490612f81565b90915550506001600160a01b0382166000908152600460205260408120805460019290611ac2908490612f36565b909155505060008181526003602052604080822080546001600160a01b0319166001600160a01b0386811691821790925591518493918716917fddf252ad1be2c89b69c2b068fc378daa952ba7f163c4a11628f55a4df523b3ef91a4610889565b611b2d8133612549565b50565b6000828152602081815260408083206001600160a01b038516845290915290205460ff16610af3576000828152602081815260408083206001600160a01b03851684529091529020805460ff19166001179055611b8a3390565b6001600160a01b0316816001600160a01b0316837f2f8788117e7eff1d82e926ec794901d17c78024a50270940304540a733656f0d60405160405180910390a45050565b6000828152602081815260408083206001600160a01b038516845290915290205460ff1615610af3576000828152602081815260408083206001600160a01b0385168085529252808320805460ff1916905551339285917ff6391f5c32d9c69d2a47ea670b442974b53935d1edc7fd64eb21e047a839171b9190a45050565b6000611c797f9f2df0fed2c77648de5860a4cc508cd0818c85b8b8a1ab4ceeef8d981c8956a633610496565b611cd05760405162461bcd60e51b815260206004820152602260248201527f55736572206d7573742068617665206d696e74657220726f6c6520746f206d696044820152611b9d60f21b6064820152608401610737565b611cde600780546001019055565b6000611ce960075490565b600e80546001810182556000919091527fbb7b4a454dc3493923482f07822329ed19e8244eff582cc204f8554c3620c3fd018190559050611d2a83826125c7565b6040805160a081018252600f548152600060208083018281528385018381526060850184815286518088018852601381527f57616974696e6720466f72204c6f74746572790000000000000000000000000081860152608087019081528886526012855296909420855181559151600183015551600282018054945115156101000261ff00199215159290921661ffff1990951694909417179092559251805192939192611dde9260038501920190612a78565b5091949350505050565b6000805b600c548110156117415782600c8281548110611e1857634e487b7160e01b600052603260045260246000fd5b90600052602060002001541415611e335760019150506105f0565b80611e3d81613016565b915050611dec565b6000611e717f9f2df0fed2c77648de5860a4cc508cd0818c85b8b8a1ab4ceeef8d981c8956a633610496565b611ec85760405162461bcd60e51b815260206004820152602260248201527f55736572206d7573742068617665206d696e74657220726f6c6520746f206d696044820152611b9d60f21b6064820152608401610737565b611ed6600780546001019055565b6000611ee160075490565b600d80546001810182556000919091527fd7b6990105719101dabeb77144f2a3385c8033acd3af97e9423a695e81ad1eb5018190559050611f2283826125c7565b6040805160a081018252600f5481526000602080830182815283850183815260016060860181815287518089018952601681527f57616974696e6720466f722046697273742053616c6500000000000000000000818701526080880190815289875260128652979095208651815592519083015551600282018054945115156101000261ff00199215159290921661ffff1990951694909417179092559251805192939192611dde9260038501920190612a78565b816001600160a01b0316836001600160a01b031614156120395760405162461bcd60e51b815260206004820152601960248201527f4552433732313a20617070726f766520746f2063616c6c6572000000000000006044820152606401610737565b6001600160a01b03838116600081815260066020908152604080832094871680845294825291829020805460ff191686151590811790915591519182527f17307eab39ab6107e8899845ad3d59bd9653f200f220920489ca2b5937696c31910160405180910390a3505050565b6120b1848484611956565b6120bd8484848461270a565b610ee05760405162461bcd60e51b815260206004820152603260248201527f4552433732313a207472616e7366657220746f206e6f6e20455243373231526560448201527f63656976657220696d706c656d656e74657200000000000000000000000000006064820152608401610737565b600061213a836112d4565b51905060005b81811015610ee0576001600160a01b038416600090815260136020526040902080548491908390811061218357634e487b7160e01b600052603260045260246000fd5b9060005260206000200154141561229c5760006121a1826001612f36565b90505b8281101561224f576001600160a01b03851660009081526013602052604090208054829081106121e457634e487b7160e01b600052603260045260246000fd5b60009182526020808320909101546001600160a01b038816835260139091526040909120612213600184612f81565b8154811061223157634e487b7160e01b600052603260045260246000fd5b6000918252602090912001558061224781613016565b9150506121a4565b506001600160a01b038416600090815260136020526040902080548061228557634e487b7160e01b600052603160045260246000fd5b600190038181906000526020600020016000905590555b806122a681613016565b915050612140565b600c5460005b818110156108895782600c82815481106122de57634e487b7160e01b600052603260045260246000fd5b906000526020600020015414156123b55760006122fc826001612f36565b90505b8281101561237e57600c818154811061232857634e487b7160e01b600052603260045260246000fd5b9060005260206000200154600c6001836123429190612f81565b8154811061236057634e487b7160e01b600052603260045260246000fd5b6000918252602090912001558061237681613016565b9150506122ff565b50600c80548061239e57634e487b7160e01b600052603160045260246000fd5b600190038181906000526020600020016000905590555b806123bf81613016565b9150506122b4565b6060816123ec57506040805180820190915260018152600360fc1b60208201526105f0565b8160005b8115612416578061240081613016565b915061240f9050600a83612f4e565b91506123f0565b60008167ffffffffffffffff81111561243f57634e487b7160e01b600052604160045260246000fd5b6040519080825280601f01601f191660200182016040528015612469576020820181803683370190505b5090505b841561194e5761247e600183612f81565b915061248b600a86613031565b612496906030612f36565b60f81b8183815181106124b957634e487b7160e01b600052603260045260246000fd5b60200101906001600160f81b031916908160001a9053506124db600a86612f4e565b945061246d565b60006001600160e01b031982167f7965db0b0000000000000000000000000000000000000000000000000000000014806105ed57507f01ffc9a7000000000000000000000000000000000000000000000000000000006001600160e01b03198316146105ed565b6000828152602081815260408083206001600160a01b038516845290915290205460ff16610af357612585816001600160a01b0316601461286d565b61259083602061286d565b6040516020016125a1929190612de8565b60408051601f198184030181529082905262461bcd60e51b825261073791600401612ee9565b6001600160a01b03821661261d5760405162461bcd60e51b815260206004820181905260248201527f4552433732313a206d696e7420746f20746865207a65726f20616464726573736044820152606401610737565b6000818152600360205260409020546001600160a01b0316156126825760405162461bcd60e51b815260206004820152601c60248201527f4552433732313a20746f6b656e20616c7265616479206d696e746564000000006044820152606401610737565b6001600160a01b03821660009081526004602052604081208054600192906126ab908490612f36565b909155505060008181526003602052604080822080546001600160a01b0319166001600160a01b03861690811790915590518392907fddf252ad1be2c89b69c2b068fc378daa952ba7f163c4a11628f55a4df523b3ef908290a4610af3565b60006001600160a01b0384163b1561286257604051630a85bd0160e11b81526001600160a01b0385169063150b7a029061274e903390899088908890600401612e69565b602060405180830381600087803b15801561276857600080fd5b505af1925050508015612798575060408051601f3d908101601f1916820190925261279591810190612d3d565b60015b612848573d8080156127c6576040519150601f19603f3d011682016040523d82523d6000602084013e6127cb565b606091505b5080516128405760405162461bcd60e51b815260206004820152603260248201527f4552433732313a207472616e7366657220746f206e6f6e20455243373231526560448201527f63656976657220696d706c656d656e74657200000000000000000000000000006064820152608401610737565b805181602001fd5b6001600160e01b031916630a85bd0160e11b14905061194e565b506001949350505050565b6060600061287c836002612f62565b612887906002612f36565b67ffffffffffffffff8111156128ad57634e487b7160e01b600052604160045260246000fd5b6040519080825280601f01601f1916602001820160405280156128d7576020820181803683370190505b509050600360fc1b8160008151811061290057634e487b7160e01b600052603260045260246000fd5b60200101906001600160f81b031916908160001a9053507f78000000000000000000000000000000000000000000000000000000000000008160018151811061295957634e487b7160e01b600052603260045260246000fd5b60200101906001600160f81b031916908160001a905350600061297d846002612f62565b612988906001612f36565b90505b6001811115612a29577f303132333435363738396162636465660000000000000000000000000000000085600f16601081106129d757634e487b7160e01b600052603260045260246000fd5b1a60f81b8282815181106129fb57634e487b7160e01b600052603260045260246000fd5b60200101906001600160f81b031916908160001a90535060049490941c93612a2281612fc4565b905061298b565b5083156116ca5760405162461bcd60e51b815260206004820181905260248201527f537472696e67733a20686578206c656e67746820696e73756666696369656e746044820152606401610737565b828054612a8490612fdb565b90600052602060002090601f016020900481019282612aa65760008555612aec565b82601f10612abf57805160ff1916838001178555612aec565b82800160010185558215612aec579182015b82811115612aec578251825591602001919060010190612ad1565b50612af8929150612afc565b5090565b5b80821115612af85760008155600101612afd565b80356001600160a01b03811681146105f057600080fd5b600060208284031215612b39578081fd5b6116ca82612b11565b60008060408385031215612b54578081fd5b612b5d83612b11565b9150612b6b60208401612b11565b90509250929050565b600080600060608486031215612b88578081fd5b612b9184612b11565b9250612b9f60208501612b11565b9150604084013590509250925092565b60008060008060808587031215612bc4578081fd5b612bcd85612b11565b9350612bdb60208601612b11565b925060408501359150606085013567ffffffffffffffff80821115612bfe578283fd5b818701915087601f830112612c11578283fd5b813581811115612c2357612c23613071565b604051601f8201601f19908116603f01168101908382118183101715612c4b57612c4b613071565b816040528281528a6020848701011115612c63578586fd5b82602086016020830137918201602001949094529598949750929550505050565b60008060408385031215612c96578182fd5b612c9f83612b11565b915060208301358015158114612cb3578182fd5b809150509250929050565b60008060408385031215612cd0578182fd5b612cd983612b11565b946020939093013593505050565b600060208284031215612cf8578081fd5b5035919050565b60008060408385031215612d11578182fd5b82359150612b6b60208401612b11565b600060208284031215612d32578081fd5b81356116ca81613087565b600060208284031215612d4e578081fd5b81516116ca81613087565b600080600060608486031215612d6d578283fd5b8335925060208401359150612d8460408501612b11565b90509250925092565b60008151808452612da5816020860160208601612f98565b601f01601f19169290920160200192915050565b60008351612dcb818460208801612f98565b835190830190612ddf818360208801612f98565b01949350505050565b60007f416363657373436f6e74726f6c3a206163636f756e742000000000000000000082528351612e20816017850160208801612f98565b7f206973206d697373696e6720726f6c65200000000000000000000000000000006017918401918201528351612e5d816028840160208801612f98565b01602801949350505050565b60006001600160a01b03808716835280861660208401525083604083015260806060830152612e9b6080830184612d8d565b9695505050505050565b6020808252825182820181905260009190848201906040850190845b81811015612edd57835183529284019291840191600101612ec1565b50909695505050505050565b6000602082526116ca6020830184612d8d565b60008682528560208301528415156040830152831515606083015260a06080830152612f2b60a0830184612d8d565b979650505050505050565b60008219821115612f4957612f49613045565b500190565b600082612f5d57612f5d61305b565b500490565b6000816000190483118215151615612f7c57612f7c613045565b500290565b600082821015612f9357612f93613045565b500390565b60005b83811015612fb3578181015183820152602001612f9b565b83811115610ee05750506000910152565b600081612fd357612fd3613045565b506000190190565b600181811c90821680612fef57607f821691505b6020821081141561301057634e487b7160e01b600052602260045260246000fd5b50919050565b600060001982141561302a5761302a613045565b5060010190565b6000826130405761304061305b565b500690565b634e487b7160e01b600052601160045260246000fd5b634e487b7160e01b600052601260045260246000fd5b634e487b7160e01b600052604160045260246000fd5b6001600160e01b031981168114611b2d57600080fdfea2646970667358221220cf93cc20a844475094e75a75d04748a4ff9b2d689a47225a3cb206b19becba9b64736f6c63430008030033",
  "linkReferences": {},
  "deployedLinkReferences": {}
}