{
  "_format": "hh-sol-artifact-1",
  "contractName": "TicketNFT",
  "sourceName": "contracts/TicketNFT.sol",
  "abi": [
    {
      "inputs": [
        {
          "internalType": "string",
          "name": "festName",
          "type": "string"
        },
        {
          "internalType": "string",
          "name": "FestSymbol",
          "type": "string"
        },
        {
          "internalType": "uint256",
          "name": "ticketPrice",
          "type": "uint256"
        },
        {
          "internalType": "uint256",
          "name": "totalSupply",
          "type": "uint256"
        },
        {
          "internalType": "address",
          "name": "organiser",
          "type": "address"
        }
      ],
      "stateMutability": "nonpayable",
      "type": "constructor"
    },
    {
      "anonymous": false,
      "inputs": [
        {
          "indexed": true,
          "internalType": "address",
          "name": "owner",
          "type": "address"
        },
        {
          "indexed": true,
          "internalType": "address",
          "name": "approved",
          "type": "address"
        },
        {
          "indexed": true,
          "internalType": "uint256",
          "name": "tokenId",
          "type": "uint256"
        }
      ],
      "name": "Approval",
      "type": "event"
    },
    {
      "anonymous": false,
      "inputs": [
        {
          "indexed": true,
          "internalType": "address",
          "name": "owner",
          "type": "address"
        },
        {
          "indexed": true,
          "internalType": "address",
          "name": "operator",
          "type": "address"
        },
        {
          "indexed": false,
          "internalType": "bool",
          "name": "approved",
          "type": "bool"
        }
      ],
      "name": "ApprovalForAll",
      "type": "event"
    },
    {
      "anonymous": false,
      "inputs": [
        {
          "indexed": true,
          "internalType": "bytes32",
          "name": "role",
          "type": "bytes32"
        },
        {
          "indexed": true,
          "internalType": "bytes32",
          "name": "previousAdminRole",
          "type": "bytes32"
        },
        {
          "indexed": true,
          "internalType": "bytes32",
          "name": "newAdminRole",
          "type": "bytes32"
        }
      ],
      "name": "RoleAdminChanged",
      "type": "event"
    },
    {
      "anonymous": false,
      "inputs": [
        {
          "indexed": true,
          "internalType": "bytes32",
          "name": "role",
          "type": "bytes32"
        },
        {
          "indexed": true,
          "internalType": "address",
          "name": "account",
          "type": "address"
        },
        {
          "indexed": true,
          "internalType": "address",
          "name": "sender",
          "type": "address"
        }
      ],
      "name": "RoleGranted",
      "type": "event"
    },
    {
      "anonymous": false,
      "inputs": [
        {
          "indexed": true,
          "internalType": "bytes32",
          "name": "role",
          "type": "bytes32"
        },
        {
          "indexed": true,
          "internalType": "address",
          "name": "account",
          "type": "address"
        },
        {
          "indexed": true,
          "internalType": "address",
          "name": "sender",
          "type": "address"
        }
      ],
      "name": "RoleRevoked",
      "type": "event"
    },
    {
      "anonymous": false,
      "inputs": [
        {
          "indexed": true,
          "internalType": "address",
          "name": "from",
          "type": "address"
        },
        {
          "indexed": true,
          "internalType": "address",
          "name": "to",
          "type": "address"
        },
        {
          "indexed": true,
          "internalType": "uint256",
          "name": "tokenId",
          "type": "uint256"
        }
      ],
      "name": "Transfer",
      "type": "event"
    },
    {
      "inputs": [],
      "name": "DEFAULT_ADMIN_ROLE",
      "outputs": [
        {
          "internalType": "bytes32",
          "name": "",
          "type": "bytes32"
        }
      ],
      "stateMutability": "view",
      "type": "function"
    },
    {
      "inputs": [],
      "name": "MINTER_ROLE",
      "outputs": [
        {
          "internalType": "bytes32",
          "name": "",
          "type": "bytes32"
        }
      ],
      "stateMutability": "view",
      "type": "function"
    },
    {
      "inputs": [
        {
          "internalType": "address",
          "name": "to",
          "type": "address"
        },
        {
          "internalType": "uint256",
          "name": "tokenId",
          "type": "uint256"
        }
      ],
      "name": "approve",
      "outputs": [],
      "stateMutability": "nonpayable",
      "type": "function"
    },
    {
      "inputs": [
        {
          "internalType": "address",
          "name": "owner",
          "type": "address"
        }
      ],
      "name": "balanceOf",
      "outputs": [
        {
          "internalType": "uint256",
          "name": "",
          "type": "uint256"
        }
      ],
      "stateMutability": "view",
      "type": "function"
    },
    {
      "inputs": [
        {
          "internalType": "uint256",
          "name": "numOfTickets",
          "type": "uint256"
        },
        {
          "internalType": "address",
          "name": "operator",
          "type": "address"
        }
      ],
      "name": "bulkLotteryTickets",
      "outputs": [],
      "stateMutability": "nonpayable",
      "type": "function"
    },
    {
      "inputs": [
        {
          "internalType": "uint256",
          "name": "numOfTickets",
          "type": "uint256"
        },
        {
          "internalType": "address",
          "name": "operator",
          "type": "address"
        }
      ],
      "name": "bulkMintTickets",
      "outputs": [],
      "stateMutability": "nonpayable",
      "type": "function"
    },
    {
      "inputs": [
        {
          "internalType": "uint256",
          "name": "tokenId",
          "type": "uint256"
        }
      ],
      "name": "getApproved",
      "outputs": [
        {
          "internalType": "address",
          "name": "",
          "type": "address"
        }
      ],
      "stateMutability": "view",
      "type": "function"
    },
    {
      "inputs": [],
      "name": "getBulkLeft",
      "outputs": [
        {
          "internalType": "uint256",
          "name": "",
          "type": "uint256"
        }
      ],
      "stateMutability": "view",
      "type": "function"
    },
    {
      "inputs": [],
      "name": "getLottLeft",
      "outputs": [
        {
          "internalType": "uint256",
          "name": "",
          "type": "uint256"
        }
      ],
      "stateMutability": "view",
      "type": "function"
    },
    {
      "inputs": [],
      "name": "getLotteryNo",
      "outputs": [
        {
          "internalType": "uint256",
          "name": "",
          "type": "uint256"
        }
      ],
      "stateMutability": "view",
      "type": "function"
    },
    {
      "inputs": [],
      "name": "getNextSaleTicketId",
      "outputs": [
        {
          "internalType": "uint256",
          "name": "",
          "type": "uint256"
        }
      ],
      "stateMutability": "view",
      "type": "function"
    },
    {
      "inputs": [],
      "name": "getOrganiser",
      "outputs": [
        {
          "internalType": "address",
          "name": "",
          "type": "address"
        }
      ],
      "stateMutability": "view",
      "type": "function"
    },
    {
      "inputs": [
        {
          "internalType": "bytes32",
          "name": "role",
          "type": "bytes32"
        }
      ],
      "name": "getRoleAdmin",
      "outputs": [
        {
          "internalType": "bytes32",
          "name": "",
          "type": "bytes32"
        }
      ],
      "stateMutability": "view",
      "type": "function"
    },
    {
      "inputs": [
        {
          "internalType": "uint256",
          "name": "ticketId",
          "type": "uint256"
        }
      ],
      "name": "getSellingPrice",
      "outputs": [
        {
          "internalType": "uint256",
          "name": "",
          "type": "uint256"
        }
      ],
      "stateMutability": "view",
      "type": "function"
    },
    {
      "inputs": [
        {
          "internalType": "uint256",
          "name": "ticketId",
          "type": "uint256"
        }
      ],
      "name": "getTicketDetails",
      "outputs": [
        {
          "internalType": "uint256",
          "name": "purchasePrice",
          "type": "uint256"
        },
        {
          "internalType": "uint256",
          "name": "sellingPrice",
          "type": "uint256"
        },
        {
          "internalType": "bool",
          "name": "forSale",
          "type": "bool"
        },
        {
          "internalType": "bool",
          "name": "canTransfer",
          "type": "bool"
        },
        {
          "internalType": "string",
          "name": "status",
          "type": "string"
        }
      ],
      "stateMutability": "view",
      "type": "function"
    },
    {
      "inputs": [],
      "name": "getTicketPrice",
      "outputs": [
        {
          "internalType": "uint256",
          "name": "",
          "type": "uint256"
        }
      ],
      "stateMutability": "view",
      "type": "function"
    },
    {
      "inputs": [],
      "name": "getTicketsForBulk",
      "outputs": [
        {
          "internalType": "uint256[]",
          "name": "",
          "type": "uint256[]"
        }
      ],
      "stateMutability": "view",
      "type": "function"
    },
    {
      "inputs": [],
      "name": "getTicketsForLott",
      "outputs": [
        {
          "internalType": "uint256[]",
          "name": "",
          "type": "uint256[]"
        }
      ],
      "stateMutability": "view",
      "type": "function"
    },
    {
      "inputs": [],
      "name": "getTicketsForSale",
      "outputs": [
        {
          "internalType": "uint256[]",
          "name": "",
          "type": "uint256[]"
        }
      ],
      "stateMutability": "view",
      "type": "function"
    },
    {
      "inputs": [
        {
          "internalType": "address",
          "name": "customer",
          "type": "address"
        }
      ],
      "name": "getTicketsOfCustomer",
      "outputs": [
        {
          "internalType": "uint256[]",
          "name": "",
          "type": "uint256[]"
        }
      ],
      "stateMutability": "view",
      "type": "function"
    },
    {
      "inputs": [
        {
          "internalType": "bytes32",
          "name": "role",
          "type": "bytes32"
        },
        {
          "internalType": "address",
          "name": "account",
          "type": "address"
        }
      ],
      "name": "grantRole",
      "outputs": [],
      "stateMutability": "nonpayable",
      "type": "function"
    },
    {
      "inputs": [
        {
          "internalType": "bytes32",
          "name": "role",
          "type": "bytes32"
        },
        {
          "internalType": "address",
          "name": "account",
          "type": "address"
        }
      ],
      "name": "hasRole",
      "outputs": [
        {
          "internalType": "bool",
          "name": "",
          "type": "bool"
        }
      ],
      "stateMutability": "view",
      "type": "function"
    },
    {
      "inputs": [
        {
          "internalType": "address",
          "name": "owner",
          "type": "address"
        },
        {
          "internalType": "address",
          "name": "operator",
          "type": "address"
        }
      ],
      "name": "isApprovedForAll",
      "outputs": [
        {
          "internalType": "bool",
          "name": "",
          "type": "bool"
        }
      ],
      "stateMutability": "view",
      "type": "function"
    },
    {
      "inputs": [
        {
          "internalType": "address",
          "name": "buyer",
          "type": "address"
        }
      ],
      "name": "isCustomerExist",
      "outputs": [
        {
          "internalType": "bool",
          "name": "",
          "type": "bool"
        }
      ],
      "stateMutability": "view",
      "type": "function"
    },
    {
      "inputs": [],
      "name": "name",
      "outputs": [
        {
          "internalType": "string",
          "name": "",
          "type": "string"
        }
      ],
      "stateMutability": "view",
      "type": "function"
    },
    {
      "inputs": [
        {
          "internalType": "uint256",
          "name": "tokenId",
          "type": "uint256"
        }
      ],
      "name": "ownerOf",
      "outputs": [
        {
          "internalType": "address",
          "name": "",
          "type": "address"
        }
      ],
      "stateMutability": "view",
      "type": "function"
    },
    {
      "inputs": [
        {
          "internalType": "bytes32",
          "name": "role",
          "type": "bytes32"
        },
        {
          "internalType": "address",
          "name": "account",
          "type": "address"
        }
      ],
      "name": "renounceRole",
      "outputs": [],
      "stateMutability": "nonpayable",
      "type": "function"
    },
    {
      "inputs": [
        {
          "internalType": "bytes32",
          "name": "role",
          "type": "bytes32"
        },
        {
          "internalType": "address",
          "name": "account",
          "type": "address"
        }
      ],
      "name": "revokeRole",
      "outputs": [],
      "stateMutability": "nonpayable",
      "type": "function"
    },
    {
      "inputs": [
        {
          "internalType": "address",
          "name": "from",
          "type": "address"
        },
        {
          "internalType": "address",
          "name": "to",
          "type": "address"
        },
        {
          "internalType": "uint256",
          "name": "tokenId",
          "type": "uint256"
        }
      ],
      "name": "safeTransferFrom",
      "outputs": [],
      "stateMutability": "nonpayable",
      "type": "function"
    },
    {
      "inputs": [
        {
          "internalType": "address",
          "name": "from",
          "type": "address"
        },
        {
          "internalType": "address",
          "name": "to",
          "type": "address"
        },
        {
          "internalType": "uint256",
          "name": "tokenId",
          "type": "uint256"
        },
        {
          "internalType": "bytes",
          "name": "_data",
          "type": "bytes"
        }
      ],
      "name": "safeTransferFrom",
      "outputs": [],
      "stateMutability": "nonpayable",
      "type": "function"
    },
    {
      "inputs": [
        {
          "internalType": "address",
          "name": "buyer",
          "type": "address"
        },
        {
          "internalType": "uint256",
          "name": "saleTicketId",
          "type": "uint256"
        }
      ],
      "name": "secondaryTransferTicket",
      "outputs": [],
      "stateMutability": "nonpayable",
      "type": "function"
    },
    {
      "inputs": [
        {
          "internalType": "address",
          "name": "operator",
          "type": "address"
        },
        {
          "internalType": "bool",
          "name": "approved",
          "type": "bool"
        }
      ],
      "name": "setApprovalForAll",
      "outputs": [],
      "stateMutability": "nonpayable",
      "type": "function"
    },
    {
      "inputs": [
        {
          "internalType": "uint256",
          "name": "ticketId",
          "type": "uint256"
        },
        {
          "internalType": "uint256",
          "name": "sellingPrice",
          "type": "uint256"
        },
        {
          "internalType": "address",
          "name": "operator",
          "type": "address"
        }
      ],
      "name": "setSaleDetails",
      "outputs": [],
      "stateMutability": "nonpayable",
      "type": "function"
    },
    {
      "inputs": [
        {
          "internalType": "bytes4",
          "name": "interfaceId",
          "type": "bytes4"
        }
      ],
      "name": "supportsInterface",
      "outputs": [
        {
          "internalType": "bool",
          "name": "",
          "type": "bool"
        }
      ],
      "stateMutability": "view",
      "type": "function"
    },
    {
      "inputs": [],
      "name": "symbol",
      "outputs": [
        {
          "internalType": "string",
          "name": "",
          "type": "string"
        }
      ],
      "stateMutability": "view",
      "type": "function"
    },
    {
      "inputs": [],
      "name": "ticketCounts",
      "outputs": [
        {
          "internalType": "uint256",
          "name": "",
          "type": "uint256"
        }
      ],
      "stateMutability": "view",
      "type": "function"
    },
    {
      "inputs": [
        {
          "internalType": "uint256",
          "name": "tokenId",
          "type": "uint256"
        }
      ],
      "name": "tokenURI",
      "outputs": [
        {
          "internalType": "string",
          "name": "",
          "type": "string"
        }
      ],
      "stateMutability": "view",
      "type": "function"
    },
    {
      "inputs": [
        {
          "internalType": "address",
          "name": "from",
          "type": "address"
        },
        {
          "internalType": "address",
          "name": "to",
          "type": "address"
        },
        {
          "internalType": "uint256",
          "name": "tokenId",
          "type": "uint256"
        }
      ],
      "name": "transferFrom",
      "outputs": [],
      "stateMutability": "nonpayable",
      "type": "function"
    },
    {
      "inputs": [
        {
          "internalType": "address",
          "name": "buyer",
          "type": "address"
        }
      ],
      "name": "transferLotteryTicket",
      "outputs": [],
      "stateMutability": "nonpayable",
      "type": "function"
    },
    {
      "inputs": [
        {
          "internalType": "address",
          "name": "buyer",
          "type": "address"
        }
      ],
      "name": "transferTicket",
      "outputs": [],
      "stateMutability": "nonpayable",
      "type": "function"
    }
  ],
  "bytecode": "0x60806040523480156200001157600080fd5b5060405162003537380380620035378339810160408190526200003491620002d2565b8451859085906200004d90600190602085019062000179565b5080516200006390600290602084019062000179565b505050620000987f9f2df0fed2c77648de5860a4cc508cd0818c85b8b8a1ab4ceeef8d981c8956a682620000c960201b60201c565b600f92909255601055600a80546001600160a01b0319166001600160a01b0390921691909117905550620003c39050565b620000d58282620000d9565b5050565b6000828152602081815260408083206001600160a01b038516845290915290205460ff16620000d5576000828152602081815260408083206001600160a01b03851684529091529020805460ff19166001179055620001353390565b6001600160a01b0316816001600160a01b0316837f2f8788117e7eff1d82e926ec794901d17c78024a50270940304540a733656f0d60405160405180910390a45050565b828054620001879062000370565b90600052602060002090601f016020900481019282620001ab5760008555620001f6565b82601f10620001c657805160ff1916838001178555620001f6565b82800160010185558215620001f6579182015b82811115620001f6578251825591602001919060010190620001d9565b506200020492915062000208565b5090565b5b8082111562000204576000815560010162000209565b600082601f83011262000230578081fd5b81516001600160401b03808211156200024d576200024d620003ad565b604051601f8301601f19908116603f01168101908282118183101715620002785762000278620003ad565b8160405283815260209250868385880101111562000294578485fd5b8491505b83821015620002b7578582018301518183018401529082019062000298565b83821115620002c857848385830101525b9695505050505050565b600080600080600060a08688031215620002ea578081fd5b85516001600160401b038082111562000301578283fd5b6200030f89838a016200021f565b9650602088015191508082111562000325578283fd5b5062000334888289016200021f565b6040880151606089015160808a0151929750909550935090506001600160a01b038116811462000362578182fd5b809150509295509295909350565b600181811c908216806200038557607f821691505b60208210811415620003a757634e487b7160e01b600052602260045260246000fd5b50919050565b634e487b7160e01b600052604160045260246000fd5b61316480620003d36000396000f3fe608060405234801561001057600080fd5b50600436106102c85760003560e01c806370a082311161017b578063af8f10c8116100d8578063d45be3ae1161008c578063d547741f11610071578063d547741f146105d1578063e3278ad6146105e4578063e985e9c5146105ec576102c8565b8063d45be3ae14610597578063d5391393146105aa576102c8565b8063b88d4fde116100bd578063b88d4fde1461055e578063c83b459014610571578063c87b56dd14610584576102c8565b8063af8f10c814610543578063b632c9e41461054b576102c8565b806399411bee1161012f578063a217fddf11610114578063a217fddf14610520578063a22cb46514610528578063abb95b741461053b576102c8565b806399411bee146105055780639ad570f614610518576102c8565b806387bb7ae01161016057806387bb7ae0146104be57806391d14854146104c657806395d89b41146104fd576102c8565b806370a0823114610498578063750e024c146104ab576102c8565b80632f2ff15d116102295780634644be60116101dd5780636352211e116101c25780636352211e1461045f57806364d7f44f146104725780636afadefb14610485576102c8565b80634644be6014610429578063569e35db1461043c576102c8565b806336568abe1161020e57806336568abe146103fb5780633dbf12411461040e57806342842e0e14610416576102c8565b80632f2ff15d146103d357806335fe12d8146103e6576102c8565b80630b7055781161028057806323b872dd1161026557806323b872dd14610379578063248a9ca31461038c57806324c14160146103af576102c8565b80630b705578146103605780630cdf1df714610371576102c8565b806306fdde03116102b157806306fdde031461030b578063081812fc14610320578063095ea7b31461034b576102c8565b806301ffc9a7146102cd578063065366ee146102f5575b600080fd5b6102e06102db366004612db2565b610628565b60405190151581526020015b60405180910390f35b6102fd61063b565b6040519081526020016102ec565b610313610676565b6040516102ec9190612f7a565b61033361032e366004612d78565b610708565b6040516001600160a01b0390911681526020016102ec565b61035e610359366004612d4f565b6107a2565b005b600a546001600160a01b0316610333565b6011546102fd565b61035e610387366004612c05565b6108d4565b6102fd61039a366004612d78565b60009081526020819052604090206001015490565b6103c26103bd366004612d78565b61095b565b6040516102ec959493929190612f8d565b61035e6103e1366004612d90565b610a35565b6103ee610a5a565b6040516102ec9190612f36565b61035e610409366004612d90565b610ab1565b6102fd610b3d565b61035e610424366004612c05565b610b5a565b61035e610437366004612d90565b610b75565b6102fd61044a366004612d78565b60009081526012602052604090206001015490565b61033361046d366004612d78565b610c7e565b61035e610480366004612dea565b610d09565b61035e610493366004612bb9565b610f49565b6102fd6104a6366004612bb9565b6110a3565b61035e6104b9366004612d90565b61113d565b600f546102fd565b6102e06104d4366004612d90565b6000918252602082815260408084206001600160a01b0393909316845291905290205460ff1690565b610313611241565b61035e610513366004612bb9565b611250565b6103ee61129b565b6102fd600081565b61035e610536366004612d15565b6112f1565b6103ee6112fc565b6102fd611352565b6103ee610559366004612bb9565b61136a565b61035e61056c366004612c40565b6113d6565b61035e61057f366004612d4f565b61145e565b610313610592366004612d78565b611671565b6102e06105a5366004612bb9565b611767565b6102fd7f9f2df0fed2c77648de5860a4cc508cd0818c85b8b8a1ab4ceeef8d981c8956a681565b61035e6105df366004612d90565b6117e0565b6102fd611805565b6102e06105fa366004612bd3565b6001600160a01b03918216600090815260066020908152604080832093909416825291909152205460ff1690565b600061063382611810565b90505b919050565b6000600c61064860085490565b8154811061066657634e487b7160e01b600052603260045260246000fd5b9060005260206000200154905090565b6060600180546106859061306c565b80601f01602080910402602001604051908101604052809291908181526020018280546106b19061306c565b80156106fe5780601f106106d3576101008083540402835291602001916106fe565b820191906000526020600020905b8154815290600101906020018083116106e157829003601f168201915b5050505050905090565b6000818152600360205260408120546001600160a01b03166107865760405162461bcd60e51b815260206004820152602c60248201527f4552433732313a20617070726f76656420717565727920666f72206e6f6e657860448201526b34b9ba32b73a103a37b5b2b760a11b60648201526084015b60405180910390fd5b506000908152600560205260409020546001600160a01b031690565b60006107ad82610c7e565b9050806001600160a01b0316836001600160a01b031614156108375760405162461bcd60e51b815260206004820152602160248201527f4552433732313a20617070726f76616c20746f2063757272656e74206f776e6560448201527f7200000000000000000000000000000000000000000000000000000000000000606482015260840161077d565b336001600160a01b0382161480610853575061085381336105fa565b6108c55760405162461bcd60e51b815260206004820152603860248201527f4552433732313a20617070726f76652063616c6c6572206973206e6f74206f7760448201527f6e6572206e6f7220617070726f76656420666f7220616c6c0000000000000000606482015260840161077d565b6108cf8383611882565b505050565b6108de33826118f0565b6109505760405162461bcd60e51b815260206004820152603160248201527f4552433732313a207472616e736665722063616c6c6572206973206e6f74206f60448201527f776e6572206e6f7220617070726f766564000000000000000000000000000000606482015260840161077d565b6108cf8383836119e7565b6000818152601260205260408120805460018201546002830154600390930180548594859485946060949193909260ff80821693610100909204169181906109a29061306c565b80601f01602080910402602001604051908101604052809291908181526020018280546109ce9061306c565b8015610a1b5780601f106109f057610100808354040283529160200191610a1b565b820191906000526020600020905b8154815290600101906020018083116109fe57829003601f168201915b505050505090509450945094509450945091939590929450565b600082815260208190526040902060010154610a5081611bb4565b6108cf8383611bc1565b6060600c8054806020026020016040519081016040528092919081815260200182805480156106fe57602002820191906000526020600020905b815481526020019060010190808311610a94575050505050905090565b6001600160a01b0381163314610b2f5760405162461bcd60e51b815260206004820152602f60248201527f416363657373436f6e74726f6c3a2063616e206f6e6c792072656e6f756e636560448201527f20726f6c657320666f722073656c660000000000000000000000000000000000606482015260840161077d565b610b398282611c5f565b5050565b6000610b4860095490565b600e54610b559190613012565b905090565b6108cf838383604051806020016040528060008152506113d6565b60105460075410610bc85760405162461bcd60e51b815260206004820152601e60248201527f4d6178696d756d207469636b6574206c696d6974206578636565646564210000604482015260640161077d565b6103e882610bd4611805565b610bde9190612fc7565b1115610c525760405162461bcd60e51b815260206004820152602e60248201527f4e756d626572206f66207469636b6574732065786365656473206d6178696d7560448201527f6d207469636b657420636f756e74000000000000000000000000000000000000606482015260840161077d565b601182905560005b828110156108cf57610c6b82611cde565b5080610c76816130a7565b915050610c5a565b6000818152600360205260408120546001600160a01b0316806106335760405162461bcd60e51b815260206004820152602960248201527f4552433732313a206f776e657220717565727920666f72206e6f6e657869737460448201527f656e7420746f6b656e0000000000000000000000000000000000000000000000606482015260840161077d565b60008381526012602052604090208054600290910154610100900460ff16610d735760405162461bcd60e51b815260206004820152601c60248201527f546865207469636b65742063616e6e6f742062652072652d73656c6c00000000604482015260640161077d565b826064610d81836082612ff3565b610d8b9190612fdf565b11610de35760405162461bcd60e51b815260206004820152602260248201527f52652d73656c6c696e67207072696365206973206d6f7265207468616e203133604482015261302560f01b606482015260840161077d565b610e0d7f9f2df0fed2c77648de5860a4cc508cd0818c85b8b8a1ab4ceeef8d981c8956a6336104d4565b15610e805760405162461bcd60e51b815260206004820152602f60248201527f46756e6374696f6e616c697479206f6e6c7920616c6c6f77656420666f72207360448201527f65636f6e64617279206d61726b65740000000000000000000000000000000000606482015260840161077d565b6000848152601260208181526040808420600180820189905560028201805461ffff191690911790558151808301909252601382527f57616974696e6720466f722052652d73656c6c00000000000000000000000000828401908152948990529290915251610ef59260039092019190612b09565b50610eff84611e79565b610f3957600c80546001810182556000919091527fdf6966c971051c3d54ec59162606531493a51404a002842f56009d7e5cf4a8c7018490555b610f4382856107a2565b50505050565b6000610f5460085490565b90506000600d8281548110610f7957634e487b7160e01b600052603260045260246000fd5b90600052602060002001549050610f94600880546001019055565b610f9d81610c7e565b6001600160a01b0316336001600160a01b031614610ffd5760405162461bcd60e51b815260206004820152601d60248201527f4f6e6c7920696e697469616c20707572636861736520616c6c6f776564000000604482015260640161077d565b61100783826107a2565b61101a61101382610c7e565b84836108d4565b61102383611767565b61107357600b80546001810182556000919091527f0175b7a638427703f0dbe7bb9bbf987a2551717b34e79f33b5b1008d1fa01db90180546001600160a01b0319166001600160a01b0385161790555b6001600160a01b039092166000908152601360209081526040822080546001810182559083529120019190915550565b60006001600160a01b0382166111215760405162461bcd60e51b815260206004820152602a60248201527f4552433732313a2062616c616e636520717565727920666f7220746865207a6560448201527f726f206164647265737300000000000000000000000000000000000000000000606482015260840161077d565b506001600160a01b031660009081526004602052604090205490565b601054600754106111905760405162461bcd60e51b815260206004820152601e60248201527f4d6178696d756d207469636b6574206c696d6974206578636565646564210000604482015260640161077d565b6103e88261119c611805565b6111a69190612fc7565b111561121a5760405162461bcd60e51b815260206004820152602e60248201527f4e756d626572206f66207469636b6574732065786365656473206d6178696d7560448201527f6d207469636b657420636f756e74000000000000000000000000000000000000606482015260840161077d565b60005b828110156108cf5761122e82611ed6565b5080611239816130a7565b91505061121d565b6060600280546106859061306c565b600061125b60095490565b90506000600e828154811061128057634e487b7160e01b600052603260045260246000fd5b90600052602060002001549050610f94600980546001019055565b6060600e8054806020026020016040519081016040528092919081815260200182805480156106fe5760200282019190600052602060002090815481526020019060010190808311610a94575050505050905090565b610b39338383612068565b6060600d8054806020026020016040519081016040528092919081815260200182805480156106fe5760200282019190600052602060002090815481526020019060010190808311610a94575050505050905090565b600061135d60085490565b600d54610b559190613012565b6001600160a01b0381166000908152601360209081526040918290208054835181840281018401909452808452606093928301828280156113ca57602002820191906000526020600020905b8154815260200190600101908083116113b6575b50505050509050919050565b6113e033836118f0565b6114525760405162461bcd60e51b815260206004820152603160248201527f4552433732313a207472616e736665722063616c6c6572206973206e6f74206f60448201527f776e6572206e6f7220617070726f766564000000000000000000000000000000606482015260840161077d565b610f4384848484612137565b6000818152601260205260409020805460019091015482919080606461148584606e612ff3565b61148f9190612fdf565b6114999084612fc7565b116114f15760405162461bcd60e51b815260206004820152602260248201527f52652d73656c6c696e67207072696365206973206d6f7265207468616e203131604482015261302560f01b606482015260840161077d565b60006114fc85610c7e565b60008681526012602052604090206001015490915061151c8288886108d4565b61152587611767565b61157557600b80546001810182556000919091527f0175b7a638427703f0dbe7bb9bbf987a2551717b34e79f33b5b1008d1fa01db90180546001600160a01b0319166001600160a01b0389161790555b6001600160a01b0387166000908152601360209081526040822080546001810182559083529120018690556115aa82876121c0565b6115b38661233f565b6040805160a081018252828152600060208083018281528385018381526060850184815286518088018852601481527f5472616e73666572656420746f206f746865727300000000000000000000000081860152608087019081528d86526012855296909420855181559151600183015551600282018054945115156101000261ff00199215159290921661ffff19909516949094171790925592518051929391926116659260038501920190612b09565b50505050505050505050565b6000818152600360205260409020546060906001600160a01b03166116fe5760405162461bcd60e51b815260206004820152602f60248201527f4552433732314d657461646174613a2055524920717565727920666f72206e6f60448201527f6e6578697374656e7420746f6b656e0000000000000000000000000000000000606482015260840161077d565b600061171560408051602081019091526000815290565b905060008151116117355760405180602001604052806000815250611760565b8061173f84612458565b604051602001611750929190612e4a565b6040516020818303038152906040525b9392505050565b6000805b600b548110156117d757826001600160a01b0316600b82815481106117a057634e487b7160e01b600052603260045260246000fd5b6000918252602090912001546001600160a01b031614156117c5576001915050610636565b806117cf816130a7565b91505061176b565b50600092915050565b6000828152602081905260409020600101546117fb81611bb4565b6108cf8383611c5f565b6000610b5560075490565b60006001600160e01b031982167f80ac58cd00000000000000000000000000000000000000000000000000000000148061187357506001600160e01b031982167f5b5e139f00000000000000000000000000000000000000000000000000000000145b80610633575061063382612573565b600081815260056020526040902080546001600160a01b0319166001600160a01b03841690811790915581906118b782610c7e565b6001600160a01b03167f8c5be1e5ebec7d5bd14f71427d1e84f3dd0314c0f7b2291e5b200ac8c7c3b92560405160405180910390a45050565b6000818152600360205260408120546001600160a01b03166119695760405162461bcd60e51b815260206004820152602c60248201527f4552433732313a206f70657261746f7220717565727920666f72206e6f6e657860448201526b34b9ba32b73a103a37b5b2b760a11b606482015260840161077d565b600061197483610c7e565b9050806001600160a01b0316846001600160a01b031614806119bb57506001600160a01b0380821660009081526006602090815260408083209388168352929052205460ff165b806119df5750836001600160a01b03166119d484610708565b6001600160a01b0316145b949350505050565b826001600160a01b03166119fa82610c7e565b6001600160a01b031614611a765760405162461bcd60e51b815260206004820152602560248201527f4552433732313a207472616e736665722066726f6d20696e636f72726563742060448201527f6f776e6572000000000000000000000000000000000000000000000000000000606482015260840161077d565b6001600160a01b038216611af15760405162461bcd60e51b8152602060048201526024808201527f4552433732313a207472616e7366657220746f20746865207a65726f2061646460448201527f7265737300000000000000000000000000000000000000000000000000000000606482015260840161077d565b611afc600082611882565b6001600160a01b0383166000908152600460205260408120805460019290611b25908490613012565b90915550506001600160a01b0382166000908152600460205260408120805460019290611b53908490612fc7565b909155505060008181526003602052604080822080546001600160a01b0319166001600160a01b0386811691821790925591518493918716917fddf252ad1be2c89b69c2b068fc378daa952ba7f163c4a11628f55a4df523b3ef91a46108cf565b611bbe81336125da565b50565b6000828152602081815260408083206001600160a01b038516845290915290205460ff16610b39576000828152602081815260408083206001600160a01b03851684529091529020805460ff19166001179055611c1b3390565b6001600160a01b0316816001600160a01b0316837f2f8788117e7eff1d82e926ec794901d17c78024a50270940304540a733656f0d60405160405180910390a45050565b6000828152602081815260408083206001600160a01b038516845290915290205460ff1615610b39576000828152602081815260408083206001600160a01b0385168085529252808320805460ff1916905551339285917ff6391f5c32d9c69d2a47ea670b442974b53935d1edc7fd64eb21e047a839171b9190a45050565b6000611d0a7f9f2df0fed2c77648de5860a4cc508cd0818c85b8b8a1ab4ceeef8d981c8956a6336104d4565b611d615760405162461bcd60e51b815260206004820152602260248201527f55736572206d7573742068617665206d696e74657220726f6c6520746f206d696044820152611b9d60f21b606482015260840161077d565b611d6f600780546001019055565b6000611d7a60075490565b600e80546001810182556000919091527fbb7b4a454dc3493923482f07822329ed19e8244eff582cc204f8554c3620c3fd018190559050611dbb8382612658565b6040805160a081018252600f548152600060208083018281528385018381526060850184815286518088018852601381527f57616974696e6720466f72204c6f74746572790000000000000000000000000081860152608087019081528886526012855296909420855181559151600183015551600282018054945115156101000261ff00199215159290921661ffff1990951694909417179092559251805192939192611e6f9260038501920190612b09565b5091949350505050565b6000805b600c548110156117d75782600c8281548110611ea957634e487b7160e01b600052603260045260246000fd5b90600052602060002001541415611ec4576001915050610636565b80611ece816130a7565b915050611e7d565b6000611f027f9f2df0fed2c77648de5860a4cc508cd0818c85b8b8a1ab4ceeef8d981c8956a6336104d4565b611f595760405162461bcd60e51b815260206004820152602260248201527f55736572206d7573742068617665206d696e74657220726f6c6520746f206d696044820152611b9d60f21b606482015260840161077d565b611f67600780546001019055565b6000611f7260075490565b600d80546001810182556000919091527fd7b6990105719101dabeb77144f2a3385c8033acd3af97e9423a695e81ad1eb5018190559050611fb38382612658565b6040805160a081018252600f5481526000602080830182815283850183815260016060860181815287518089018952601681527f57616974696e6720466f722046697273742053616c6500000000000000000000818701526080880190815289875260128652979095208651815592519083015551600282018054945115156101000261ff00199215159290921661ffff1990951694909417179092559251805192939192611e6f9260038501920190612b09565b816001600160a01b0316836001600160a01b031614156120ca5760405162461bcd60e51b815260206004820152601960248201527f4552433732313a20617070726f766520746f2063616c6c657200000000000000604482015260640161077d565b6001600160a01b03838116600081815260066020908152604080832094871680845294825291829020805460ff191686151590811790915591519182527f17307eab39ab6107e8899845ad3d59bd9653f200f220920489ca2b5937696c31910160405180910390a3505050565b6121428484846119e7565b61214e8484848461279b565b610f435760405162461bcd60e51b815260206004820152603260248201527f4552433732313a207472616e7366657220746f206e6f6e20455243373231526560448201527f63656976657220696d706c656d656e7465720000000000000000000000000000606482015260840161077d565b60006121cb8361136a565b51905060005b81811015610f43576001600160a01b038416600090815260136020526040902080548491908390811061221457634e487b7160e01b600052603260045260246000fd5b9060005260206000200154141561232d576000612232826001612fc7565b90505b828110156122e0576001600160a01b038516600090815260136020526040902080548290811061227557634e487b7160e01b600052603260045260246000fd5b60009182526020808320909101546001600160a01b0388168352601390915260409091206122a4600184613012565b815481106122c257634e487b7160e01b600052603260045260246000fd5b600091825260209091200155806122d8816130a7565b915050612235565b506001600160a01b038416600090815260136020526040902080548061231657634e487b7160e01b600052603160045260246000fd5b600190038181906000526020600020016000905590555b80612337816130a7565b9150506121d1565b600c5460005b818110156108cf5782600c828154811061236f57634e487b7160e01b600052603260045260246000fd5b9060005260206000200154141561244657600061238d826001612fc7565b90505b8281101561240f57600c81815481106123b957634e487b7160e01b600052603260045260246000fd5b9060005260206000200154600c6001836123d39190613012565b815481106123f157634e487b7160e01b600052603260045260246000fd5b60009182526020909120015580612407816130a7565b915050612390565b50600c80548061242f57634e487b7160e01b600052603160045260246000fd5b600190038181906000526020600020016000905590555b80612450816130a7565b915050612345565b60608161247d57506040805180820190915260018152600360fc1b6020820152610636565b8160005b81156124a75780612491816130a7565b91506124a09050600a83612fdf565b9150612481565b60008167ffffffffffffffff8111156124d057634e487b7160e01b600052604160045260246000fd5b6040519080825280601f01601f1916602001820160405280156124fa576020820181803683370190505b5090505b84156119df5761250f600183613012565b915061251c600a866130c2565b612527906030612fc7565b60f81b81838151811061254a57634e487b7160e01b600052603260045260246000fd5b60200101906001600160f81b031916908160001a90535061256c600a86612fdf565b94506124fe565b60006001600160e01b031982167f7965db0b00000000000000000000000000000000000000000000000000000000148061063357507f01ffc9a7000000000000000000000000000000000000000000000000000000006001600160e01b0319831614610633565b6000828152602081815260408083206001600160a01b038516845290915290205460ff16610b3957612616816001600160a01b031660146128fe565b6126218360206128fe565b604051602001612632929190612e79565b60408051601f198184030181529082905262461bcd60e51b825261077d91600401612f7a565b6001600160a01b0382166126ae5760405162461bcd60e51b815260206004820181905260248201527f4552433732313a206d696e7420746f20746865207a65726f2061646472657373604482015260640161077d565b6000818152600360205260409020546001600160a01b0316156127135760405162461bcd60e51b815260206004820152601c60248201527f4552433732313a20746f6b656e20616c7265616479206d696e74656400000000604482015260640161077d565b6001600160a01b038216600090815260046020526040812080546001929061273c908490612fc7565b909155505060008181526003602052604080822080546001600160a01b0319166001600160a01b03861690811790915590518392907fddf252ad1be2c89b69c2b068fc378daa952ba7f163c4a11628f55a4df523b3ef908290a4610b39565b60006001600160a01b0384163b156128f357604051630a85bd0160e11b81526001600160a01b0385169063150b7a02906127df903390899088908890600401612efa565b602060405180830381600087803b1580156127f957600080fd5b505af1925050508015612829575060408051601f3d908101601f1916820190925261282691810190612dce565b60015b6128d9573d808015612857576040519150601f19603f3d011682016040523d82523d6000602084013e61285c565b606091505b5080516128d15760405162461bcd60e51b815260206004820152603260248201527f4552433732313a207472616e7366657220746f206e6f6e20455243373231526560448201527f63656976657220696d706c656d656e7465720000000000000000000000000000606482015260840161077d565b805181602001fd5b6001600160e01b031916630a85bd0160e11b1490506119df565b506001949350505050565b6060600061290d836002612ff3565b612918906002612fc7565b67ffffffffffffffff81111561293e57634e487b7160e01b600052604160045260246000fd5b6040519080825280601f01601f191660200182016040528015612968576020820181803683370190505b509050600360fc1b8160008151811061299157634e487b7160e01b600052603260045260246000fd5b60200101906001600160f81b031916908160001a9053507f7800000000000000000000000000000000000000000000000000000000000000816001815181106129ea57634e487b7160e01b600052603260045260246000fd5b60200101906001600160f81b031916908160001a9053506000612a0e846002612ff3565b612a19906001612fc7565b90505b6001811115612aba577f303132333435363738396162636465660000000000000000000000000000000085600f1660108110612a6857634e487b7160e01b600052603260045260246000fd5b1a60f81b828281518110612a8c57634e487b7160e01b600052603260045260246000fd5b60200101906001600160f81b031916908160001a90535060049490941c93612ab381613055565b9050612a1c565b5083156117605760405162461bcd60e51b815260206004820181905260248201527f537472696e67733a20686578206c656e67746820696e73756666696369656e74604482015260640161077d565b828054612b159061306c565b90600052602060002090601f016020900481019282612b375760008555612b7d565b82601f10612b5057805160ff1916838001178555612b7d565b82800160010185558215612b7d579182015b82811115612b7d578251825591602001919060010190612b62565b50612b89929150612b8d565b5090565b5b80821115612b895760008155600101612b8e565b80356001600160a01b038116811461063657600080fd5b600060208284031215612bca578081fd5b61176082612ba2565b60008060408385031215612be5578081fd5b612bee83612ba2565b9150612bfc60208401612ba2565b90509250929050565b600080600060608486031215612c19578081fd5b612c2284612ba2565b9250612c3060208501612ba2565b9150604084013590509250925092565b60008060008060808587031215612c55578081fd5b612c5e85612ba2565b9350612c6c60208601612ba2565b925060408501359150606085013567ffffffffffffffff80821115612c8f578283fd5b818701915087601f830112612ca2578283fd5b813581811115612cb457612cb4613102565b604051601f8201601f19908116603f01168101908382118183101715612cdc57612cdc613102565b816040528281528a6020848701011115612cf4578586fd5b82602086016020830137918201602001949094529598949750929550505050565b60008060408385031215612d27578182fd5b612d3083612ba2565b915060208301358015158114612d44578182fd5b809150509250929050565b60008060408385031215612d61578182fd5b612d6a83612ba2565b946020939093013593505050565b600060208284031215612d89578081fd5b5035919050565b60008060408385031215612da2578182fd5b82359150612bfc60208401612ba2565b600060208284031215612dc3578081fd5b813561176081613118565b600060208284031215612ddf578081fd5b815161176081613118565b600080600060608486031215612dfe578283fd5b8335925060208401359150612e1560408501612ba2565b90509250925092565b60008151808452612e36816020860160208601613029565b601f01601f19169290920160200192915050565b60008351612e5c818460208801613029565b835190830190612e70818360208801613029565b01949350505050565b60007f416363657373436f6e74726f6c3a206163636f756e742000000000000000000082528351612eb1816017850160208801613029565b7f206973206d697373696e6720726f6c65200000000000000000000000000000006017918401918201528351612eee816028840160208801613029565b01602801949350505050565b60006001600160a01b03808716835280861660208401525083604083015260806060830152612f2c6080830184612e1e565b9695505050505050565b6020808252825182820181905260009190848201906040850190845b81811015612f6e57835183529284019291840191600101612f52565b50909695505050505050565b6000602082526117606020830184612e1e565b60008682528560208301528415156040830152831515606083015260a06080830152612fbc60a0830184612e1e565b979650505050505050565b60008219821115612fda57612fda6130d6565b500190565b600082612fee57612fee6130ec565b500490565b600081600019048311821515161561300d5761300d6130d6565b500290565b600082821015613024576130246130d6565b500390565b60005b8381101561304457818101518382015260200161302c565b83811115610f435750506000910152565b600081613064576130646130d6565b506000190190565b600181811c9082168061308057607f821691505b602082108114156130a157634e487b7160e01b600052602260045260246000fd5b50919050565b60006000198214156130bb576130bb6130d6565b5060010190565b6000826130d1576130d16130ec565b500690565b634e487b7160e01b600052601160045260246000fd5b634e487b7160e01b600052601260045260246000fd5b634e487b7160e01b600052604160045260246000fd5b6001600160e01b031981168114611bbe57600080fdfea2646970667358221220bfda869b18bc713d3e4225df8eec9fabab5758dc152daeae7be8dde9a3e0bd5e64736f6c63430008030033",
  "linkReferences": {},
  "deployedLinkReferences": {}
}