{
  "_format": "hh-sol-artifact-1",
  "contractName": "TicketsFactory",
  "sourceName": "contracts/TicketFactory.sol",
  "abi": [
    {
      "anonymous": false,
      "inputs": [
        {
          "indexed": false,
          "internalType": "address",
          "name": "ntfAddress",
          "type": "address"
        },
        {
          "indexed": false,
          "internalType": "address",
          "name": "marketplaceAddress",
          "type": "address"
        }
      ],
      "name": "Created",
      "type": "event"
    },
    {
      "anonymous": false,
      "inputs": [
        {
          "indexed": true,
          "internalType": "address",
          "name": "previousOwner",
          "type": "address"
        },
        {
          "indexed": true,
          "internalType": "address",
          "name": "newOwner",
          "type": "address"
        }
      ],
      "name": "OwnershipTransferred",
      "type": "event"
    },
    {
      "inputs": [
        {
          "internalType": "contract GogoToken",
          "name": "token",
          "type": "address"
        },
        {
          "internalType": "string",
          "name": "festName",
          "type": "string"
        },
        {
          "internalType": "string",
          "name": "festSymbol",
          "type": "string"
        },
        {
          "internalType": "uint256",
          "name": "ticketPrice",
          "type": "uint256"
        },
        {
          "internalType": "uint256",
          "name": "totalSupply",
          "type": "uint256"
        }
      ],
      "name": "createNewFest",
      "outputs": [
        {
          "internalType": "address",
          "name": "",
          "type": "address"
        }
      ],
      "stateMutability": "nonpayable",
      "type": "function"
    },
    {
      "inputs": [],
      "name": "getActiveFests",
      "outputs": [
        {
          "internalType": "address[]",
          "name": "",
          "type": "address[]"
        }
      ],
      "stateMutability": "view",
      "type": "function"
    },
    {
      "inputs": [
        {
          "internalType": "address",
          "name": "festAddress",
          "type": "address"
        }
      ],
      "name": "getFestDetails",
      "outputs": [
        {
          "internalType": "string",
          "name": "",
          "type": "string"
        },
        {
          "internalType": "string",
          "name": "",
          "type": "string"
        },
        {
          "internalType": "uint256",
          "name": "",
          "type": "uint256"
        },
        {
          "internalType": "uint256",
          "name": "",
          "type": "uint256"
        },
        {
          "internalType": "address",
          "name": "",
          "type": "address"
        }
      ],
      "stateMutability": "view",
      "type": "function"
    },
    {
      "inputs": [],
      "name": "owner",
      "outputs": [
        {
          "internalType": "address",
          "name": "",
          "type": "address"
        }
      ],
      "stateMutability": "view",
      "type": "function"
    },
    {
      "inputs": [],
      "name": "renounceOwnership",
      "outputs": [],
      "stateMutability": "nonpayable",
      "type": "function"
    },
    {
      "inputs": [
        {
          "internalType": "address",
          "name": "newOwner",
          "type": "address"
        }
      ],
      "name": "transferOwnership",
      "outputs": [],
      "stateMutability": "nonpayable",
      "type": "function"
    }
  ],
  "bytecode": "0x608060405234801561001057600080fd5b5061001a3361001f565b61006f565b600080546001600160a01b038381166001600160a01b0319831681178455604051919092169283917f8be0079c531659141344cd1fd0a4f28419497f9722a3daafe3b4186f6b6457e09190a35050565b6155fc8061007e6000396000f3fe60806040523480156200001157600080fd5b50600436106200007c5760003560e01c80638da5cb5b11620000575780638da5cb5b14620000d95780638f4e628914620000ff578063f2fde38b1462000116576200007c565b8063118648ea1462000081578063294fbbf114620000a3578063715018a614620000cd575b600080fd5b6200008b6200012d565b6040516200009a919062000949565b60405180910390f35b620000ba620000b436600462000847565b62000191565b6040516200009a95949392919062000998565b620000d76200030a565b005b6000546001600160a01b03165b6040516001600160a01b0390911681526020016200009a565b620000e6620001103660046200086d565b62000378565b620000d76200012736600462000847565b620005b1565b606060018054806020026020016040519081016040528092919081815260200182805480156200018757602002820191906000526020600020905b81546001600160a01b0316815260019091019060200180831162000168575b5050505050905090565b6001600160a01b0380821660009081526002602081905260408220908101546003820154600483015483546060968796958695869591946001860194919316908590620001de90620009e8565b80601f01602080910402602001604051908101604052809291908181526020018280546200020c90620009e8565b80156200025d5780601f1062000231576101008083540402835291602001916200025d565b820191906000526020600020905b8154815290600101906020018083116200023f57829003601f168201915b505050505094508380546200027290620009e8565b80601f0160208091040260200160405190810160405280929190818152602001828054620002a090620009e8565b8015620002f15780601f10620002c557610100808354040283529160200191620002f1565b820191906000526020600020905b815481529060010190602001808311620002d357829003601f168201915b50989f939e50959c50939a509198509650505050505050565b6000546001600160a01b031633146200036a5760405162461bcd60e51b815260206004820181905260248201527f4f776e61626c653a2063616c6c6572206973206e6f7420746865206f776e657260448201526064015b60405180910390fd5b62000376600062000699565b565b600080546001600160a01b03163314620003d55760405162461bcd60e51b815260206004820181905260248201527f4f776e61626c653a2063616c6c6572206973206e6f7420746865206f776e6572604482015260640162000361565b60008585858533604051620003ea90620006f6565b620003fa95949392919062000998565b604051809103906000f08015801562000417573d6000803e3d6000fd5b509050600087826040516200042c9062000704565b6001600160a01b03928316815291166020820152604001604051809103906000f08015801562000460573d6000803e3d6000fd5b50600180548082019091557fb10e2d527612073b26eecdfd717e6a320cf44b4afac2b0732d9fcbe2b7fa0cf601805473ffffffffffffffffffffffffffffffffffffffff19166001600160a01b038581169182179092556040805160a0810182528b815260208082018c90528183018b9052606082018a9052938516608082015260009283526002845291208151805194955086949293919262000508928492019062000712565b50602082810151805162000523926001850192019062000712565b506040828101516002830155606083015160038301556080909201516004909101805473ffffffffffffffffffffffffffffffffffffffff19166001600160a01b039283161790558151838216815290841660208201527f587ece4cd19692c5be1a4184503d607d45542d2aca0698c0068f52e09ccb541c910160405180910390a198975050505050505050565b6000546001600160a01b031633146200060d5760405162461bcd60e51b815260206004820181905260248201527f4f776e61626c653a2063616c6c6572206973206e6f7420746865206f776e6572604482015260640162000361565b6001600160a01b0381166200068b5760405162461bcd60e51b815260206004820152602660248201527f4f776e61626c653a206e6577206f776e657220697320746865207a65726f206160448201527f6464726573730000000000000000000000000000000000000000000000000000606482015260840162000361565b620006968162000699565b50565b600080546001600160a01b0383811673ffffffffffffffffffffffffffffffffffffffff19831681178455604051919092169283917f8be0079c531659141344cd1fd0a4f28419497f9722a3daafe3b4186f6b6457e09190a35050565b61349f8062000a5283390190565b6116d68062003ef183390190565b8280546200072090620009e8565b90600052602060002090601f0160209004810192826200074457600085556200078f565b82601f106200075f57805160ff19168380011785556200078f565b828001600101855582156200078f579182015b828111156200078f57825182559160200191906001019062000772565b506200079d929150620007a1565b5090565b5b808211156200079d5760008155600101620007a2565b600082601f830112620007c9578081fd5b813567ffffffffffffffff80821115620007e757620007e762000a25565b604051601f8301601f19908116603f0116810190828211818310171562000812576200081262000a25565b816040528381528660208588010111156200082b578485fd5b8360208701602083013792830160200193909352509392505050565b60006020828403121562000859578081fd5b8135620008668162000a3b565b9392505050565b600080600080600060a0868803121562000885578081fd5b8535620008928162000a3b565b9450602086013567ffffffffffffffff80821115620008af578283fd5b620008bd89838a01620007b8565b95506040880135915080821115620008d3578283fd5b50620008e288828901620007b8565b9598949750949560608101359550608001359392505050565b60008151808452815b81811015620009225760208185018101518683018201520162000904565b81811115620009345782602083870101525b50601f01601f19169290920160200192915050565b6020808252825182820181905260009190848201906040850190845b818110156200098c5783516001600160a01b03168352928401929184019160010162000965565b50909695505050505050565b600060a08252620009ad60a0830188620008fb565b8281036020840152620009c18188620008fb565b6040840196909652505060608101929092526001600160a01b031660809091015292915050565b600181811c90821680620009fd57607f821691505b6020821081141562000a1f57634e487b7160e01b600052602260045260246000fd5b50919050565b634e487b7160e01b600052604160045260246000fd5b6001600160a01b03811681146200069657600080fdfe60806040523480156200001157600080fd5b506040516200349f3803806200349f8339810160408190526200003491620002d2565b8451859085906200004d90600190602085019062000179565b5080516200006390600290602084019062000179565b505050620000987f9f2df0fed2c77648de5860a4cc508cd0818c85b8b8a1ab4ceeef8d981c8956a682620000c960201b60201c565b600f92909255601055600a80546001600160a01b0319166001600160a01b0390921691909117905550620003c39050565b620000d58282620000d9565b5050565b6000828152602081815260408083206001600160a01b038516845290915290205460ff16620000d5576000828152602081815260408083206001600160a01b03851684529091529020805460ff19166001179055620001353390565b6001600160a01b0316816001600160a01b0316837f2f8788117e7eff1d82e926ec794901d17c78024a50270940304540a733656f0d60405160405180910390a45050565b828054620001879062000370565b90600052602060002090601f016020900481019282620001ab5760008555620001f6565b82601f10620001c657805160ff1916838001178555620001f6565b82800160010185558215620001f6579182015b82811115620001f6578251825591602001919060010190620001d9565b506200020492915062000208565b5090565b5b8082111562000204576000815560010162000209565b600082601f83011262000230578081fd5b81516001600160401b03808211156200024d576200024d620003ad565b604051601f8301601f19908116603f01168101908282118183101715620002785762000278620003ad565b8160405283815260209250868385880101111562000294578485fd5b8491505b83821015620002b7578582018301518183018401529082019062000298565b83821115620002c857848385830101525b9695505050505050565b600080600080600060a08688031215620002ea578081fd5b85516001600160401b038082111562000301578283fd5b6200030f89838a016200021f565b9650602088015191508082111562000325578283fd5b5062000334888289016200021f565b6040880151606089015160808a0151929750909550935090506001600160a01b038116811462000362578182fd5b809150509295509295909350565b600181811c908216806200038557607f821691505b60208210811415620003a757634e487b7160e01b600052602260045260246000fd5b50919050565b634e487b7160e01b600052604160045260246000fd5b6130cc80620003d36000396000f3fe608060405234801561001057600080fd5b50600436106102925760003560e01c806370a0823111610160578063abb95b74116100d8578063d45be3ae1161008c578063d547741f11610071578063d547741f1461058b578063e3278ad61461059e578063e985e9c5146105a657610292565b8063d45be3ae14610551578063d53913931461056457610292565b8063b88d4fde116100bd578063b88d4fde14610518578063c83b45901461052b578063c87b56dd1461053e57610292565b8063abb95b74146104fd578063b632c9e41461050557610292565b806395d89b411161012f5780639ad570f6116101145780639ad570f6146104da578063a217fddf146104e2578063a22cb465146104ea57610292565b806395d89b41146104bf57806399411bee146104c757610292565b806370a082311461045a578063750e024c1461046d57806387bb7ae01461048057806391d148541461048857610292565b806324c141601161020e5780634644be60116101c25780636352211e116101a75780636352211e1461042157806364d7f44f146104345780636afadefb1461044757610292565b80634644be60146103eb578063569e35db146103fe57610292565b806335fe12d8116101f357806335fe12d8146103b057806336568abe146103c557806342842e0e146103d857610292565b806324c14160146103795780632f2ff15d1461039d57610292565b8063095ea7b3116102655780630cdf1df71161024a5780630cdf1df71461033b57806323b872dd14610343578063248a9ca31461035657610292565b8063095ea7b3146103155780630b7055781461032a57610292565b806301ffc9a714610297578063065366ee146102bf57806306fdde03146102d5578063081812fc146102ea575b600080fd5b6102aa6102a5366004612d17565b6105e2565b60405190151581526020015b60405180910390f35b6102c76105f5565b6040519081526020016102b6565b6102dd610630565b6040516102b69190612edf565b6102fd6102f8366004612cdd565b6106c2565b6040516001600160a01b0390911681526020016102b6565b610328610323366004612cb4565b61075c565b005b600a546001600160a01b03166102fd565b6011546102c7565b610328610351366004612b6a565b61088e565b6102c7610364366004612cdd565b60009081526020819052604090206001015490565b61038c610387366004612cdd565b610915565b6040516102b6959493929190612ef2565b6103286103ab366004612cf5565b6109ef565b6103b8610a16565b6040516102b69190612e9b565b6103286103d3366004612cf5565b610a6d565b6103286103e6366004612b6a565b610af9565b6103286103f9366004612cf5565b610b14565b6102c761040c366004612cdd565b60009081526012602052604090206001015490565b6102fd61042f366004612cdd565b610c1d565b610328610442366004612d4f565b610ca8565b610328610455366004612b1e565b610ee8565b6102c7610468366004612b1e565b611042565b61032861047b366004612cf5565b6110dc565b600f546102c7565b6102aa610496366004612cf5565b6000918252602082815260408084206001600160a01b0393909316845291905290205460ff1690565b6102dd6111e0565b6103286104d5366004612b1e565b6111ef565b6103b861121f565b6102c7600081565b6103286104f8366004612c7a565b611275565b6103b8611280565b6103b8610513366004612b1e565b6112d6565b610328610526366004612ba5565b611342565b610328610539366004612cb4565b6113ca565b6102dd61054c366004612cdd565b6115dd565b6102aa61055f366004612b1e565b6116d3565b6102c77f9f2df0fed2c77648de5860a4cc508cd0818c85b8b8a1ab4ceeef8d981c8956a681565b610328610599366004612cf5565b61174c565b6102c7611772565b6102aa6105b4366004612b38565b6001600160a01b03918216600090815260066020908152604080832093909416825291909152205460ff1690565b60006105ed82611782565b90505b919050565b6000600c61060260085490565b8154811061062057634e487b7160e01b600052603260045260246000fd5b9060005260206000200154905090565b60606001805461063f90612fd1565b80601f016020809104026020016040519081016040528092919081815260200182805461066b90612fd1565b80156106b85780601f1061068d576101008083540402835291602001916106b8565b820191906000526020600020905b81548152906001019060200180831161069b57829003601f168201915b5050505050905090565b6000818152600360205260408120546001600160a01b03166107405760405162461bcd60e51b815260206004820152602c60248201527f4552433732313a20617070726f76656420717565727920666f72206e6f6e657860448201526b34b9ba32b73a103a37b5b2b760a11b60648201526084015b60405180910390fd5b506000908152600560205260409020546001600160a01b031690565b600061076782610c1d565b9050806001600160a01b0316836001600160a01b031614156107f15760405162461bcd60e51b815260206004820152602160248201527f4552433732313a20617070726f76616c20746f2063757272656e74206f776e6560448201527f72000000000000000000000000000000000000000000000000000000000000006064820152608401610737565b336001600160a01b038216148061080d575061080d81336105b4565b61087f5760405162461bcd60e51b815260206004820152603860248201527f4552433732313a20617070726f76652063616c6c6572206973206e6f74206f7760448201527f6e6572206e6f7220617070726f76656420666f7220616c6c00000000000000006064820152608401610737565b61088983836117f4565b505050565b6108983382611862565b61090a5760405162461bcd60e51b815260206004820152603160248201527f4552433732313a207472616e736665722063616c6c6572206973206e6f74206f60448201527f776e6572206e6f7220617070726f7665640000000000000000000000000000006064820152608401610737565b610889838383611959565b6000818152601260205260408120805460018201546002830154600390930180548594859485946060949193909260ff808216936101009092041691819061095c90612fd1565b80601f016020809104026020016040519081016040528092919081815260200182805461098890612fd1565b80156109d55780601f106109aa576101008083540402835291602001916109d5565b820191906000526020600020905b8154815290600101906020018083116109b857829003601f168201915b505050505090509450945094509450945091939590929450565b600082815260208190526040902060010154610a0c81335b611b26565b6108898383611ba4565b6060600c8054806020026020016040519081016040528092919081815260200182805480156106b857602002820191906000526020600020905b815481526020019060010190808311610a50575050505050905090565b6001600160a01b0381163314610aeb5760405162461bcd60e51b815260206004820152602f60248201527f416363657373436f6e74726f6c3a2063616e206f6e6c792072656e6f756e636560448201527f20726f6c657320666f722073656c6600000000000000000000000000000000006064820152608401610737565b610af58282611c42565b5050565b61088983838360405180602001604052806000815250611342565b60105460075410610b675760405162461bcd60e51b815260206004820152601e60248201527f4d6178696d756d207469636b6574206c696d69742065786365656465642100006044820152606401610737565b6103e882610b73611772565b610b7d9190612f2c565b1115610bf15760405162461bcd60e51b815260206004820152602e60248201527f4e756d626572206f66207469636b6574732065786365656473206d6178696d7560448201527f6d207469636b657420636f756e740000000000000000000000000000000000006064820152608401610737565b601182905560005b8281101561088957610c0a82611cc1565b5080610c158161300c565b915050610bf9565b6000818152600360205260408120546001600160a01b0316806105ed5760405162461bcd60e51b815260206004820152602960248201527f4552433732313a206f776e657220717565727920666f72206e6f6e657869737460448201527f656e7420746f6b656e00000000000000000000000000000000000000000000006064820152608401610737565b60008381526012602052604090208054600290910154610100900460ff16610d125760405162461bcd60e51b815260206004820152601c60248201527f546865207469636b65742063616e6e6f742062652072652d73656c6c000000006044820152606401610737565b826064610d20836082612f58565b610d2a9190612f44565b11610d825760405162461bcd60e51b815260206004820152602260248201527f52652d73656c6c696e67207072696365206973206d6f7265207468616e203133604482015261302560f01b6064820152608401610737565b610dac7f9f2df0fed2c77648de5860a4cc508cd0818c85b8b8a1ab4ceeef8d981c8956a633610496565b15610e1f5760405162461bcd60e51b815260206004820152602f60248201527f46756e6374696f6e616c697479206f6e6c7920616c6c6f77656420666f72207360448201527f65636f6e64617279206d61726b657400000000000000000000000000000000006064820152608401610737565b6000848152601260208181526040808420600180820189905560028201805461ffff191690911790558151808301909252601382527f57616974696e6720466f722052652d73656c6c00000000000000000000000000828401908152948990529290915251610e949260039092019190612a6e565b50610e9e84611e5c565b610ed857600c80546001810182556000919091527fdf6966c971051c3d54ec59162606531493a51404a002842f56009d7e5cf4a8c7018490555b610ee2828561075c565b50505050565b6000610ef360085490565b90506000600d8281548110610f1857634e487b7160e01b600052603260045260246000fd5b90600052602060002001549050610f33600880546001019055565b610f3c81610c1d565b6001600160a01b0316336001600160a01b031614610f9c5760405162461bcd60e51b815260206004820152601d60248201527f4f6e6c7920696e697469616c20707572636861736520616c6c6f7765640000006044820152606401610737565b610fa6838261075c565b610fb9610fb282610c1d565b848361088e565b610fc2836116d3565b61101257600b80546001810182556000919091527f0175b7a638427703f0dbe7bb9bbf987a2551717b34e79f33b5b1008d1fa01db90180546001600160a01b0319166001600160a01b0385161790555b6001600160a01b039092166000908152601360209081526040822080546001810182559083529120019190915550565b60006001600160a01b0382166110c05760405162461bcd60e51b815260206004820152602a60248201527f4552433732313a2062616c616e636520717565727920666f7220746865207a6560448201527f726f2061646472657373000000000000000000000000000000000000000000006064820152608401610737565b506001600160a01b031660009081526004602052604090205490565b6010546007541061112f5760405162461bcd60e51b815260206004820152601e60248201527f4d6178696d756d207469636b6574206c696d69742065786365656465642100006044820152606401610737565b6103e88261113b611772565b6111459190612f2c565b11156111b95760405162461bcd60e51b815260206004820152602e60248201527f4e756d626572206f66207469636b6574732065786365656473206d6178696d7560448201527f6d207469636b657420636f756e740000000000000000000000000000000000006064820152608401610737565b60005b82811015610889576111cd82611eb9565b50806111d88161300c565b9150506111bc565b60606002805461063f90612fd1565b60006111fa60095490565b90506000600e8281548110610f1857634e487b7160e01b600052603260045260246000fd5b6060600e8054806020026020016040519081016040528092919081815260200182805480156106b85760200282019190600052602060002090815481526020019060010190808311610a50575050505050905090565b610af533838361204b565b6060600d8054806020026020016040519081016040528092919081815260200182805480156106b85760200282019190600052602060002090815481526020019060010190808311610a50575050505050905090565b6001600160a01b03811660009081526013602090815260409182902080548351818402810184019094528084526060939283018282801561133657602002820191906000526020600020905b815481526020019060010190808311611322575b50505050509050919050565b61134c3383611862565b6113be5760405162461bcd60e51b815260206004820152603160248201527f4552433732313a207472616e736665722063616c6c6572206973206e6f74206f60448201527f776e6572206e6f7220617070726f7665640000000000000000000000000000006064820152608401610737565b610ee28484848461211a565b600081815260126020526040902080546001909101548291908060646113f184606e612f58565b6113fb9190612f44565b6114059084612f2c565b1161145d5760405162461bcd60e51b815260206004820152602260248201527f52652d73656c6c696e67207072696365206973206d6f7265207468616e203131604482015261302560f01b6064820152608401610737565b600061146885610c1d565b60008681526012602052604090206001015490915061148882888861088e565b611491876116d3565b6114e157600b80546001810182556000919091527f0175b7a638427703f0dbe7bb9bbf987a2551717b34e79f33b5b1008d1fa01db90180546001600160a01b0319166001600160a01b0389161790555b6001600160a01b03871660009081526013602090815260408220805460018101825590835291200186905561151682876121a3565b61151f86612322565b6040805160a081018252828152600060208083018281528385018381526060850184815286518088018852601481527f5472616e73666572656420746f206f746865727300000000000000000000000081860152608087019081528d86526012855296909420855181559151600183015551600282018054945115156101000261ff00199215159290921661ffff19909516949094171790925592518051929391926115d19260038501920190612a6e565b50505050505050505050565b6000818152600360205260409020546060906001600160a01b031661166a5760405162461bcd60e51b815260206004820152602f60248201527f4552433732314d657461646174613a2055524920717565727920666f72206e6f60448201527f6e6578697374656e7420746f6b656e00000000000000000000000000000000006064820152608401610737565b600061168160408051602081019091526000815290565b905060008151116116a157604051806020016040528060008152506116cc565b806116ab8461243b565b6040516020016116bc929190612daf565b6040516020818303038152906040525b9392505050565b6000805b600b5481101561174357826001600160a01b0316600b828154811061170c57634e487b7160e01b600052603260045260246000fd5b6000918252602090912001546001600160a01b031614156117315760019150506105f0565b8061173b8161300c565b9150506116d7565b50600092915050565b6000828152602081905260409020600101546117688133610a07565b6108898383611c42565b600061177d60075490565b905090565b60006001600160e01b031982167f80ac58cd0000000000000000000000000000000000000000000000000000000014806117e557506001600160e01b031982167f5b5e139f00000000000000000000000000000000000000000000000000000000145b806105ed57506105ed82612556565b600081815260056020526040902080546001600160a01b0319166001600160a01b038416908117909155819061182982610c1d565b6001600160a01b03167f8c5be1e5ebec7d5bd14f71427d1e84f3dd0314c0f7b2291e5b200ac8c7c3b92560405160405180910390a45050565b6000818152600360205260408120546001600160a01b03166118db5760405162461bcd60e51b815260206004820152602c60248201527f4552433732313a206f70657261746f7220717565727920666f72206e6f6e657860448201526b34b9ba32b73a103a37b5b2b760a11b6064820152608401610737565b60006118e683610c1d565b9050806001600160a01b0316846001600160a01b031614806119215750836001600160a01b0316611916846106c2565b6001600160a01b0316145b8061195157506001600160a01b0380821660009081526006602090815260408083209388168352929052205460ff165b949350505050565b826001600160a01b031661196c82610c1d565b6001600160a01b0316146119e85760405162461bcd60e51b815260206004820152602560248201527f4552433732313a207472616e736665722066726f6d20696e636f72726563742060448201527f6f776e65720000000000000000000000000000000000000000000000000000006064820152608401610737565b6001600160a01b038216611a635760405162461bcd60e51b8152602060048201526024808201527f4552433732313a207472616e7366657220746f20746865207a65726f2061646460448201527f72657373000000000000000000000000000000000000000000000000000000006064820152608401610737565b611a6e6000826117f4565b6001600160a01b0383166000908152600460205260408120805460019290611a97908490612f77565b90915550506001600160a01b0382166000908152600460205260408120805460019290611ac5908490612f2c565b909155505060008181526003602052604080822080546001600160a01b0319166001600160a01b0386811691821790925591518493918716917fddf252ad1be2c89b69c2b068fc378daa952ba7f163c4a11628f55a4df523b3ef91a4610889565b6000828152602081815260408083206001600160a01b038516845290915290205460ff16610af557611b62816001600160a01b031660146125bd565b611b6d8360206125bd565b604051602001611b7e929190612dde565b60408051601f198184030181529082905262461bcd60e51b825261073791600401612edf565b6000828152602081815260408083206001600160a01b038516845290915290205460ff16610af5576000828152602081815260408083206001600160a01b03851684529091529020805460ff19166001179055611bfe3390565b6001600160a01b0316816001600160a01b0316837f2f8788117e7eff1d82e926ec794901d17c78024a50270940304540a733656f0d60405160405180910390a45050565b6000828152602081815260408083206001600160a01b038516845290915290205460ff1615610af5576000828152602081815260408083206001600160a01b0385168085529252808320805460ff1916905551339285917ff6391f5c32d9c69d2a47ea670b442974b53935d1edc7fd64eb21e047a839171b9190a45050565b6000611ced7f9f2df0fed2c77648de5860a4cc508cd0818c85b8b8a1ab4ceeef8d981c8956a633610496565b611d445760405162461bcd60e51b815260206004820152602260248201527f55736572206d7573742068617665206d696e74657220726f6c6520746f206d696044820152611b9d60f21b6064820152608401610737565b611d52600780546001019055565b6000611d5d60075490565b600e80546001810182556000919091527fbb7b4a454dc3493923482f07822329ed19e8244eff582cc204f8554c3620c3fd018190559050611d9e83826127c8565b6040805160a081018252600f548152600060208083018281528385018381526060850184815286518088018852601381527f57616974696e6720466f72204c6f74746572790000000000000000000000000081860152608087019081528886526012855296909420855181559151600183015551600282018054945115156101000261ff00199215159290921661ffff1990951694909417179092559251805192939192611e529260038501920190612a6e565b5091949350505050565b6000805b600c548110156117435782600c8281548110611e8c57634e487b7160e01b600052603260045260246000fd5b90600052602060002001541415611ea75760019150506105f0565b80611eb18161300c565b915050611e60565b6000611ee57f9f2df0fed2c77648de5860a4cc508cd0818c85b8b8a1ab4ceeef8d981c8956a633610496565b611f3c5760405162461bcd60e51b815260206004820152602260248201527f55736572206d7573742068617665206d696e74657220726f6c6520746f206d696044820152611b9d60f21b6064820152608401610737565b611f4a600780546001019055565b6000611f5560075490565b600d80546001810182556000919091527fd7b6990105719101dabeb77144f2a3385c8033acd3af97e9423a695e81ad1eb5018190559050611f9683826127c8565b6040805160a081018252600f5481526000602080830182815283850183815260016060860181815287518089018952601681527f57616974696e6720466f722046697273742053616c6500000000000000000000818701526080880190815289875260128652979095208651815592519083015551600282018054945115156101000261ff00199215159290921661ffff1990951694909417179092559251805192939192611e529260038501920190612a6e565b816001600160a01b0316836001600160a01b031614156120ad5760405162461bcd60e51b815260206004820152601960248201527f4552433732313a20617070726f766520746f2063616c6c6572000000000000006044820152606401610737565b6001600160a01b03838116600081815260066020908152604080832094871680845294825291829020805460ff191686151590811790915591519182527f17307eab39ab6107e8899845ad3d59bd9653f200f220920489ca2b5937696c31910160405180910390a3505050565b612125848484611959565b6121318484848461290b565b610ee25760405162461bcd60e51b815260206004820152603260248201527f4552433732313a207472616e7366657220746f206e6f6e20455243373231526560448201527f63656976657220696d706c656d656e74657200000000000000000000000000006064820152608401610737565b60006121ae836112d6565b51905060005b81811015610ee2576001600160a01b03841660009081526013602052604090208054849190839081106121f757634e487b7160e01b600052603260045260246000fd5b90600052602060002001541415612310576000612215826001612f2c565b90505b828110156122c3576001600160a01b038516600090815260136020526040902080548290811061225857634e487b7160e01b600052603260045260246000fd5b60009182526020808320909101546001600160a01b038816835260139091526040909120612287600184612f77565b815481106122a557634e487b7160e01b600052603260045260246000fd5b600091825260209091200155806122bb8161300c565b915050612218565b506001600160a01b03841660009081526013602052604090208054806122f957634e487b7160e01b600052603160045260246000fd5b600190038181906000526020600020016000905590555b8061231a8161300c565b9150506121b4565b600c5460005b818110156108895782600c828154811061235257634e487b7160e01b600052603260045260246000fd5b90600052602060002001541415612429576000612370826001612f2c565b90505b828110156123f257600c818154811061239c57634e487b7160e01b600052603260045260246000fd5b9060005260206000200154600c6001836123b69190612f77565b815481106123d457634e487b7160e01b600052603260045260246000fd5b600091825260209091200155806123ea8161300c565b915050612373565b50600c80548061241257634e487b7160e01b600052603160045260246000fd5b600190038181906000526020600020016000905590555b806124338161300c565b915050612328565b60608161246057506040805180820190915260018152600360fc1b60208201526105f0565b8160005b811561248a57806124748161300c565b91506124839050600a83612f44565b9150612464565b60008167ffffffffffffffff8111156124b357634e487b7160e01b600052604160045260246000fd5b6040519080825280601f01601f1916602001820160405280156124dd576020820181803683370190505b5090505b8415611951576124f2600183612f77565b91506124ff600a86613027565b61250a906030612f2c565b60f81b81838151811061252d57634e487b7160e01b600052603260045260246000fd5b60200101906001600160f81b031916908160001a90535061254f600a86612f44565b94506124e1565b60006001600160e01b031982167f7965db0b0000000000000000000000000000000000000000000000000000000014806105ed57507f01ffc9a7000000000000000000000000000000000000000000000000000000006001600160e01b03198316146105ed565b606060006125cc836002612f58565b6125d7906002612f2c565b67ffffffffffffffff8111156125fd57634e487b7160e01b600052604160045260246000fd5b6040519080825280601f01601f191660200182016040528015612627576020820181803683370190505b509050600360fc1b8160008151811061265057634e487b7160e01b600052603260045260246000fd5b60200101906001600160f81b031916908160001a9053507f7800000000000000000000000000000000000000000000000000000000000000816001815181106126a957634e487b7160e01b600052603260045260246000fd5b60200101906001600160f81b031916908160001a90535060006126cd846002612f58565b6126d8906001612f2c565b90505b6001811115612779577f303132333435363738396162636465660000000000000000000000000000000085600f166010811061272757634e487b7160e01b600052603260045260246000fd5b1a60f81b82828151811061274b57634e487b7160e01b600052603260045260246000fd5b60200101906001600160f81b031916908160001a90535060049490941c9361277281612fba565b90506126db565b5083156116cc5760405162461bcd60e51b815260206004820181905260248201527f537472696e67733a20686578206c656e67746820696e73756666696369656e746044820152606401610737565b6001600160a01b03821661281e5760405162461bcd60e51b815260206004820181905260248201527f4552433732313a206d696e7420746f20746865207a65726f20616464726573736044820152606401610737565b6000818152600360205260409020546001600160a01b0316156128835760405162461bcd60e51b815260206004820152601c60248201527f4552433732313a20746f6b656e20616c7265616479206d696e746564000000006044820152606401610737565b6001600160a01b03821660009081526004602052604081208054600192906128ac908490612f2c565b909155505060008181526003602052604080822080546001600160a01b0319166001600160a01b03861690811790915590518392907fddf252ad1be2c89b69c2b068fc378daa952ba7f163c4a11628f55a4df523b3ef908290a4610af5565b60006001600160a01b0384163b15612a6357604051630a85bd0160e11b81526001600160a01b0385169063150b7a029061294f903390899088908890600401612e5f565b602060405180830381600087803b15801561296957600080fd5b505af1925050508015612999575060408051601f3d908101601f1916820190925261299691810190612d33565b60015b612a49573d8080156129c7576040519150601f19603f3d011682016040523d82523d6000602084013e6129cc565b606091505b508051612a415760405162461bcd60e51b815260206004820152603260248201527f4552433732313a207472616e7366657220746f206e6f6e20455243373231526560448201527f63656976657220696d706c656d656e74657200000000000000000000000000006064820152608401610737565b805181602001fd5b6001600160e01b031916630a85bd0160e11b149050611951565b506001949350505050565b828054612a7a90612fd1565b90600052602060002090601f016020900481019282612a9c5760008555612ae2565b82601f10612ab557805160ff1916838001178555612ae2565b82800160010185558215612ae2579182015b82811115612ae2578251825591602001919060010190612ac7565b50612aee929150612af2565b5090565b5b80821115612aee5760008155600101612af3565b80356001600160a01b03811681146105f057600080fd5b600060208284031215612b2f578081fd5b6116cc82612b07565b60008060408385031215612b4a578081fd5b612b5383612b07565b9150612b6160208401612b07565b90509250929050565b600080600060608486031215612b7e578081fd5b612b8784612b07565b9250612b9560208501612b07565b9150604084013590509250925092565b60008060008060808587031215612bba578081fd5b612bc385612b07565b9350612bd160208601612b07565b925060408501359150606085013567ffffffffffffffff80821115612bf4578283fd5b818701915087601f830112612c07578283fd5b813581811115612c1957612c19613067565b604051601f8201601f19908116603f01168101908382118183101715612c4157612c41613067565b816040528281528a6020848701011115612c59578586fd5b82602086016020830137918201602001949094529598949750929550505050565b60008060408385031215612c8c578182fd5b612c9583612b07565b915060208301358015158114612ca9578182fd5b809150509250929050565b60008060408385031215612cc6578182fd5b612ccf83612b07565b946020939093013593505050565b600060208284031215612cee578081fd5b5035919050565b60008060408385031215612d07578182fd5b82359150612b6160208401612b07565b600060208284031215612d28578081fd5b81356116cc8161307d565b600060208284031215612d44578081fd5b81516116cc8161307d565b600080600060608486031215612d63578283fd5b8335925060208401359150612d7a60408501612b07565b90509250925092565b60008151808452612d9b816020860160208601612f8e565b601f01601f19169290920160200192915050565b60008351612dc1818460208801612f8e565b835190830190612dd5818360208801612f8e565b01949350505050565b60007f416363657373436f6e74726f6c3a206163636f756e742000000000000000000082528351612e16816017850160208801612f8e565b7f206973206d697373696e6720726f6c65200000000000000000000000000000006017918401918201528351612e53816028840160208801612f8e565b01602801949350505050565b60006001600160a01b03808716835280861660208401525083604083015260806060830152612e916080830184612d83565b9695505050505050565b6020808252825182820181905260009190848201906040850190845b81811015612ed357835183529284019291840191600101612eb7565b50909695505050505050565b6000602082526116cc6020830184612d83565b60008682528560208301528415156040830152831515606083015260a06080830152612f2160a0830184612d83565b979650505050505050565b60008219821115612f3f57612f3f61303b565b500190565b600082612f5357612f53613051565b500490565b6000816000190483118215151615612f7257612f7261303b565b500290565b600082821015612f8957612f8961303b565b500390565b60005b83811015612fa9578181015183820152602001612f91565b83811115610ee25750506000910152565b600081612fc957612fc961303b565b506000190190565b600181811c90821680612fe557607f821691505b6020821081141561300657634e487b7160e01b600052602260045260246000fd5b50919050565b60006000198214156130205761302061303b565b5060010190565b60008261303657613036613051565b500690565b634e487b7160e01b600052601160045260246000fd5b634e487b7160e01b600052601260045260246000fd5b634e487b7160e01b600052604160045260246000fd5b6001600160e01b03198116811461309357600080fd5b5056fea264697066735822122008183c920257ba67c834357fd109289c61c071858080dcbb25afd1890b62de2164736f6c6343000803003360806040523480156200001157600080fd5b50604051620016d6380380620016d6833981016040819052620000349162000123565b600080546001600160a01b038085166001600160a01b0319928316179092556001805492841692909116821790556040805163016e0aaf60e31b81529051630b70557891600480820192602092909190829003018186803b1580156200009957600080fd5b505afa158015620000ae573d6000803e3d6000fd5b505050506040513d601f19601f82011682018060405250810190620000d49190620000fd565b600280546001600160a01b0319166001600160a01b0392909216919091179055506200017a9050565b6000602082840312156200010f578081fd5b81516200011c8162000161565b9392505050565b6000806040838503121562000136578081fd5b8251620001438162000161565b6020840151909250620001568162000161565b809150509250929050565b6001600160a01b03811681146200017757600080fd5b50565b61154c806200018a6000396000f3fe608060405234801561001057600080fd5b50600436106100725760003560e01c8063d014c01f11610050578063d014c01f146100b2578063f206c7aa146100c5578063f71d96cb146100cd57610072565b806321846c76146100775780632eeac4c3146100815780638b5b9ccc14610094575b600080fd5b61007f6100f8565b005b61007f61008f36600461136d565b61046d565b61009c6108de565b6040516100a9919061139d565b60405180910390f35b61007f6100c0366004611351565b610940565b61007f610ec1565b6100e06100db36600461136d565b6111f0565b6040516001600160a01b0390911681526020016100a9565b600154604051632d8cb27960e21b81523360048201819052916002916001600160a01b039091169063b632c9e49060240160006040518083038186803b15801561014157600080fd5b505afa158015610155573d6000803e3d6000fd5b505050506040513d6000823e601f3d908101601f1916820160405261017d9190810190611271565b51106101d05760405162461bcd60e51b815260206004820152601e60248201527f43616e6e6f7420627579206d6f7265207468616e2032207469636b657473000060448201526064015b60405180910390fd5b6000546001546040805163043ddbd760e51b815290516001600160a01b03938416936323b872dd938693309391909216916387bb7ae0916004808301926020929190829003018186803b15801561022657600080fd5b505afa15801561023a573d6000803e3d6000fd5b505050506040513d601f19601f8201168201806040525081019061025e9190611385565b6040516001600160e01b031960e086901b1681526001600160a01b0393841660048201529290911660248301526044820152606401602060405180830381600087803b1580156102ad57600080fd5b505af11580156102c1573d6000803e3d6000fd5b505050506040513d601f19601f820116820180604052508101906102e59190611331565b506000546002546001546040805163043ddbd760e51b815290516001600160a01b039485169463a9059cbb9481169316916387bb7ae0916004808301926020929190829003018186803b15801561033b57600080fd5b505afa15801561034f573d6000803e3d6000fd5b505050506040513d601f19601f820116820180604052508101906103739190611385565b6040516001600160e01b031960e085901b1681526001600160a01b0390921660048301526024820152604401602060405180830381600087803b1580156103b957600080fd5b505af11580156103cd573d6000803e3d6000fd5b505050506040513d601f19601f820116820180604052508101906103f19190611331565b506001546040517f6afadefb0000000000000000000000000000000000000000000000000000000081526001600160a01b03838116600483015290911690636afadefb90602401600060405180830381600087803b15801561045257600080fd5b505af1158015610466573d6000803e3d6000fd5b5050505050565b6001546040517f6352211e000000000000000000000000000000000000000000000000000000008152600481018390526000916001600160a01b031690636352211e9060240160206040518083038186803b1580156104cb57600080fd5b505afa1580156104df573d6000803e3d6000fd5b505050506040513d601f19601f82011682018060405250810190610503919061124e565b6001546040517f569e35db0000000000000000000000000000000000000000000000000000000081526004810185905291925033916000916001600160a01b03169063569e35db9060240160206040518083038186803b15801561056657600080fd5b505afa15801561057a573d6000803e3d6000fd5b505050506040513d601f19601f8201168201806040525081019061059e9190611385565b9050600060646105af83600a611457565b6105b99190611443565b6000549091506001600160a01b03166323b872dd84306105d98587611476565b6040516001600160e01b031960e086901b1681526001600160a01b0393841660048201529290911660248301526044820152606401602060405180830381600087803b15801561062857600080fd5b505af115801561063c573d6000803e3d6000fd5b505050506040513d601f19601f820116820180604052508101906106609190611331565b506000546001600160a01b031663a9059cbb8561067d8486611476565b6040516001600160e01b031960e085901b1681526001600160a01b0390921660048301526024820152604401602060405180830381600087803b1580156106c357600080fd5b505af11580156106d7573d6000803e3d6000fd5b505050506040513d601f19601f820116820180604052508101906106fb9190611331565b506000546040516323b872dd60e01b81526001600160a01b03858116600483015230602483015260448201849052909116906323b872dd90606401602060405180830381600087803b15801561075057600080fd5b505af1158015610764573d6000803e3d6000fd5b505050506040513d601f19601f820116820180604052508101906107889190611331565b5060005460025460405163a9059cbb60e01b81526001600160a01b0391821660048201526024810184905291169063a9059cbb90604401602060405180830381600087803b1580156107d957600080fd5b505af11580156107ed573d6000803e3d6000fd5b505050506040513d601f19601f820116820180604052508101906108119190611331565b506001546040517fc83b45900000000000000000000000000000000000000000000000000000000081526001600160a01b038581166004830152602482018890529091169063c83b459090604401600060405180830381600087803b15801561087957600080fd5b505af115801561088d573d6000803e3d6000fd5b5050604080516001600160a01b038881168252602082018a9052871693507f22e3ae3a20c49dce14046235895c7a3ffc0a6a5f3577c370177ad45fa619485d92500160405180910390a25050505050565b6060600380548060200260200160405190810160405280929190818152602001828054801561093657602002820191906000526020600020905b81546001600160a01b03168152600190910190602001808311610918575b5050505050905090565b600154604080517f0b705578000000000000000000000000000000000000000000000000000000008152905133926001600160a01b031691630b705578916004808301926020929190829003018186803b15801561099d57600080fd5b505afa1580156109b1573d6000803e3d6000fd5b505050506040513d601f19601f820116820180604052508101906109d5919061124e565b6001600160a01b0316826001600160a01b0316630b7055786040518163ffffffff1660e01b815260040160206040518083038186803b158015610a1757600080fd5b505afa158015610a2b573d6000803e3d6000fd5b505050506040513d601f19601f82011682018060405250810190610a4f919061124e565b6001600160a01b031614610acb5760405162461bcd60e51b815260206004820152603160248201527f506c61796572206d757374206861766520706172746963697061746520696e2060448201527f61637469766974696573206265666f726500000000000000000000000000000060648201526084016101c7565b6040517fd45be3ae0000000000000000000000000000000000000000000000000000000081526001600160a01b03828116600483015283169063d45be3ae9060240160206040518083038186803b158015610b2557600080fd5b505afa158015610b39573d6000803e3d6000fd5b505050506040513d601f19601f82011682018060405250810190610b5d9190611331565b610ba95760405162461bcd60e51b815260206004820152601f60248201527f506c61796572206d75737420686f6c64207469636b657473206265666f72650060448201526064016101c7565b600154604051632d8cb27960e21b81526001600160a01b038381166004830152600292169063b632c9e49060240160006040518083038186803b158015610bef57600080fd5b505afa158015610c03573d6000803e3d6000fd5b505050506040513d6000823e601f3d908101601f19168201604052610c2b9190810190611271565b5110610c9e5760405162461bcd60e51b8152602060048201526024808201527f506c61796572206d75737420686f6c64206c657373207468616e20322074696360448201527f6b6574730000000000000000000000000000000000000000000000000000000060648201526084016101c7565b60006064600160009054906101000a90046001600160a01b03166001600160a01b03166387bb7ae06040518163ffffffff1660e01b815260040160206040518083038186803b158015610cf057600080fd5b505afa158015610d04573d6000803e3d6000fd5b505050506040513d601f19601f82011682018060405250810190610d289190611385565b610d3390600a611457565b610d3d9190611443565b6000546040516323b872dd60e01b81526001600160a01b038581166004830152306024830152604482018490529293509116906323b872dd90606401602060405180830381600087803b158015610d9357600080fd5b505af1158015610da7573d6000803e3d6000fd5b505050506040513d601f19601f82011682018060405250810190610dcb9190611331565b5060005460025460405163a9059cbb60e01b81526001600160a01b0391821660048201526024810184905291169063a9059cbb90604401602060405180830381600087803b158015610e1c57600080fd5b505af1158015610e30573d6000803e3d6000fd5b505050506040513d601f19601f82011682018060405250810190610e549190611331565b5050600380546001810182556000919091527fc2575a0e9e593c00f959f8c92f12db2869c3395a3b0502d05e2516446f71f85b0180547fffffffffffffffffffffffff0000000000000000000000000000000000000000166001600160a01b039290921691909117905550565b600154604080517f0cdf1df700000000000000000000000000000000000000000000000000000000815290516000926001600160a01b031691630cdf1df7916004808301926020929190829003018186803b158015610f1f57600080fd5b505afa158015610f33573d6000803e3d6000fd5b505050506040513d601f19601f82011682018060405250810190610f579190611385565b905060005b818110156111ec57600354600090610f7261121a565b610f7c91906114a8565b905060006003600081548110610fa257634e487b7160e01b600052603260045260246000fd5b6000918252602080832091909101546001546040805163043ddbd760e51b815290516001600160a01b03938416965060649493909216926387bb7ae092600480840193829003018186803b158015610ff957600080fd5b505afa15801561100d573d6000803e3d6000fd5b505050506040513d601f19601f820116820180604052508101906110319190611385565b61103c90605a611457565b6110469190611443565b6000546040516323b872dd60e01b81526001600160a01b038581166004830152306024830152604482018490529293509116906323b872dd90606401602060405180830381600087803b15801561109c57600080fd5b505af11580156110b0573d6000803e3d6000fd5b505050506040513d601f19601f820116820180604052508101906110d49190611331565b5060005460025460405163a9059cbb60e01b81526001600160a01b0391821660048201526024810184905291169063a9059cbb90604401602060405180830381600087803b15801561112557600080fd5b505af1158015611139573d6000803e3d6000fd5b505050506040513d601f19601f8201168201806040525081019061115d9190611331565b506001546040517f99411bee0000000000000000000000000000000000000000000000000000000081526001600160a01b038481166004830152909116906399411bee90602401600060405180830381600087803b1580156111be57600080fd5b505af11580156111d2573d6000803e3d6000fd5b5050505050505080806111e49061148d565b915050610f5c565b5050565b6003818154811061120057600080fd5b6000918252602090912001546001600160a01b0316905081565b60004260036040516020016112309291906113ea565b6040516020818303038152906040528051906020012060001c905090565b60006020828403121561125f578081fd5b815161126a816114fe565b9392505050565b60006020808385031215611283578182fd5b825167ffffffffffffffff8082111561129a578384fd5b818501915085601f8301126112ad578384fd5b8151818111156112bf576112bf6114e8565b8060051b604051601f19603f830116810181811085821117156112e4576112e46114e8565b604052828152858101935084860182860187018a1015611302578788fd5b8795505b83861015611324578051855260019590950194938601938601611306565b5098975050505050505050565b600060208284031215611342578081fd5b8151801515811461126a578182fd5b600060208284031215611362578081fd5b813561126a816114fe565b60006020828403121561137e578081fd5b5035919050565b600060208284031215611396578081fd5b5051919050565b6020808252825182820181905260009190848201906040850190845b818110156113de5783516001600160a01b0316835292840192918401916001016113b9565b50909695505050505050565b60006040820184835260206040818501528185548084526060860191508685528285209350845b818110156114365784546001600160a01b031683526001948501949284019201611411565b5090979650505050505050565b600082611452576114526114d2565b500490565b6000816000190483118215151615611471576114716114bc565b500290565b600082821015611488576114886114bc565b500390565b60006000198214156114a1576114a16114bc565b5060010190565b6000826114b7576114b76114d2565b500690565b634e487b7160e01b600052601160045260246000fd5b634e487b7160e01b600052601260045260246000fd5b634e487b7160e01b600052604160045260246000fd5b6001600160a01b038116811461151357600080fd5b5056fea26469706673582212204a69493998fb7e0dc94fdb95f5efb78df4ef422716f46967c5d40b947c201c2064736f6c63430008030033a2646970667358221220c3b2190659e014dd3c54f37495660e91d57b7fa2db1dc4aeb1209652181a72b364736f6c63430008030033",
  "linkReferences": {},
  "deployedLinkReferences": {}
}