{
  "_format": "hh-sol-artifact-1",
  "contractName": "TicketMarket",
  "sourceName": "contracts/TicketMarket.sol",
  "abi": [
    {
      "inputs": [
        {
          "internalType": "contract GogoToken",
          "name": "token",
          "type": "address"
        },
        {
          "internalType": "contract TicketNFT",
          "name": "festival",
          "type": "address"
        }
      ],
      "stateMutability": "nonpayable",
      "type": "constructor"
    },
    {
      "anonymous": false,
      "inputs": [
        {
          "indexed": true,
          "internalType": "address",
          "name": "buyer",
          "type": "address"
        },
        {
          "indexed": false,
          "internalType": "address",
          "name": "seller",
          "type": "address"
        },
        {
          "indexed": false,
          "internalType": "uint256",
          "name": "ticketId",
          "type": "uint256"
        }
      ],
      "name": "Purchase",
      "type": "event"
    },
    {
      "inputs": [],
      "name": "enter",
      "outputs": [],
      "stateMutability": "nonpayable",
      "type": "function"
    },
    {
      "inputs": [
        {
          "internalType": "contract TicketNFT",
          "name": "oldfestival",
          "type": "address"
        }
      ],
      "name": "fansOnlyEnter",
      "outputs": [],
      "stateMutability": "nonpayable",
      "type": "function"
    },
    {
      "inputs": [],
      "name": "getPlayers",
      "outputs": [
        {
          "internalType": "address[]",
          "name": "",
          "type": "address[]"
        }
      ],
      "stateMutability": "view",
      "type": "function"
    },
    {
      "inputs": [],
      "name": "lotteryTicket",
      "outputs": [],
      "stateMutability": "nonpayable",
      "type": "function"
    },
    {
      "inputs": [
        {
          "internalType": "uint256",
          "name": "",
          "type": "uint256"
        }
      ],
      "name": "players",
      "outputs": [
        {
          "internalType": "address",
          "name": "",
          "type": "address"
        }
      ],
      "stateMutability": "view",
      "type": "function"
    },
    {
      "inputs": [],
      "name": "purchaseTicket",
      "outputs": [],
      "stateMutability": "nonpayable",
      "type": "function"
    },
    {
      "inputs": [
        {
          "internalType": "uint256",
          "name": "ticketId",
          "type": "uint256"
        }
      ],
      "name": "secondaryPurchase",
      "outputs": [],
      "stateMutability": "nonpayable",
      "type": "function"
    }
  ],
  "bytecode": "0x60806040523480156200001157600080fd5b5060405162001b1338038062001b13833981016040819052620000349162000123565b600080546001600160a01b038085166001600160a01b0319928316179092556001805492841692909116821790556040805163016e0aaf60e31b81529051630b70557891600480820192602092909190829003018186803b1580156200009957600080fd5b505afa158015620000ae573d6000803e3d6000fd5b505050506040513d601f19601f82011682018060405250810190620000d49190620000fd565b600280546001600160a01b0319166001600160a01b0392909216919091179055506200017a9050565b6000602082840312156200010f578081fd5b81516200011c8162000161565b9392505050565b6000806040838503121562000136578081fd5b8251620001438162000161565b6020840151909250620001568162000161565b809150509250929050565b6001600160a01b03811681146200017757600080fd5b50565b611989806200018a6000396000f3fe608060405234801561001057600080fd5b506004361061007d5760003560e01c80638b5b9ccc1161005b5780638b5b9ccc146100b2578063e97dcb62146100d0578063f206c7aa146100d8578063f71d96cb146100e05761007d565b806321846c76146100825780632eeac4c31461008c57806368dc162e1461009f575b600080fd5b61008a61010b565b005b61008a61009a3660046117aa565b610480565b61008a6100ad36600461178e565b6108f1565b6100ba610e4e565b6040516100c791906117da565b60405180910390f35b61008a610eb0565b61008a6111a6565b6100f36100ee3660046117aa565b61162d565b6040516001600160a01b0390911681526020016100c7565b600154604051632d8cb27960e21b81523360048201819052916002916001600160a01b039091169063b632c9e49060240160006040518083038186803b15801561015457600080fd5b505afa158015610168573d6000803e3d6000fd5b505050506040513d6000823e601f3d908101601f1916820160405261019091908101906116ae565b51106101e35760405162461bcd60e51b815260206004820152601e60248201527f43616e6e6f7420627579206d6f7265207468616e2032207469636b657473000060448201526064015b60405180910390fd5b6000546001546040805163043ddbd760e51b815290516001600160a01b03938416936323b872dd938693309391909216916387bb7ae0916004808301926020929190829003018186803b15801561023957600080fd5b505afa15801561024d573d6000803e3d6000fd5b505050506040513d601f19601f8201168201806040525081019061027191906117c2565b6040516001600160e01b031960e086901b1681526001600160a01b0393841660048201529290911660248301526044820152606401602060405180830381600087803b1580156102c057600080fd5b505af11580156102d4573d6000803e3d6000fd5b505050506040513d601f19601f820116820180604052508101906102f8919061176e565b506000546002546001546040805163043ddbd760e51b815290516001600160a01b039485169463a9059cbb9481169316916387bb7ae0916004808301926020929190829003018186803b15801561034e57600080fd5b505afa158015610362573d6000803e3d6000fd5b505050506040513d601f19601f8201168201806040525081019061038691906117c2565b6040516001600160e01b031960e085901b1681526001600160a01b0390921660048301526024820152604401602060405180830381600087803b1580156103cc57600080fd5b505af11580156103e0573d6000803e3d6000fd5b505050506040513d601f19601f82011682018060405250810190610404919061176e565b506001546040517f6afadefb0000000000000000000000000000000000000000000000000000000081526001600160a01b03838116600483015290911690636afadefb90602401600060405180830381600087803b15801561046557600080fd5b505af1158015610479573d6000803e3d6000fd5b5050505050565b6001546040517f6352211e000000000000000000000000000000000000000000000000000000008152600481018390526000916001600160a01b031690636352211e9060240160206040518083038186803b1580156104de57600080fd5b505afa1580156104f2573d6000803e3d6000fd5b505050506040513d601f19601f82011682018060405250810190610516919061168b565b6001546040517f569e35db0000000000000000000000000000000000000000000000000000000081526004810185905291925033916000916001600160a01b03169063569e35db9060240160206040518083038186803b15801561057957600080fd5b505afa15801561058d573d6000803e3d6000fd5b505050506040513d601f19601f820116820180604052508101906105b191906117c2565b9050600060646105c283600a611894565b6105cc9190611880565b6000549091506001600160a01b03166323b872dd84306105ec85876118b3565b6040516001600160e01b031960e086901b1681526001600160a01b0393841660048201529290911660248301526044820152606401602060405180830381600087803b15801561063b57600080fd5b505af115801561064f573d6000803e3d6000fd5b505050506040513d601f19601f82011682018060405250810190610673919061176e565b506000546001600160a01b031663a9059cbb8561069084866118b3565b6040516001600160e01b031960e085901b1681526001600160a01b0390921660048301526024820152604401602060405180830381600087803b1580156106d657600080fd5b505af11580156106ea573d6000803e3d6000fd5b505050506040513d601f19601f8201168201806040525081019061070e919061176e565b506000546040516323b872dd60e01b81526001600160a01b03858116600483015230602483015260448201849052909116906323b872dd90606401602060405180830381600087803b15801561076357600080fd5b505af1158015610777573d6000803e3d6000fd5b505050506040513d601f19601f8201168201806040525081019061079b919061176e565b5060005460025460405163a9059cbb60e01b81526001600160a01b0391821660048201526024810184905291169063a9059cbb90604401602060405180830381600087803b1580156107ec57600080fd5b505af1158015610800573d6000803e3d6000fd5b505050506040513d601f19601f82011682018060405250810190610824919061176e565b506001546040517fc83b45900000000000000000000000000000000000000000000000000000000081526001600160a01b038581166004830152602482018890529091169063c83b459090604401600060405180830381600087803b15801561088c57600080fd5b505af11580156108a0573d6000803e3d6000fd5b5050604080516001600160a01b038881168252602082018a9052871693507f22e3ae3a20c49dce14046235895c7a3ffc0a6a5f3577c370177ad45fa619485d92500160405180910390a25050505050565b600154604080517f0b705578000000000000000000000000000000000000000000000000000000008152905133926001600160a01b031691630b705578916004808301926020929190829003018186803b15801561094e57600080fd5b505afa158015610962573d6000803e3d6000fd5b505050506040513d601f19601f82011682018060405250810190610986919061168b565b6001600160a01b0316826001600160a01b0316630b7055786040518163ffffffff1660e01b815260040160206040518083038186803b1580156109c857600080fd5b505afa1580156109dc573d6000803e3d6000fd5b505050506040513d601f19601f82011682018060405250810190610a00919061168b565b6001600160a01b031614610a7c5760405162461bcd60e51b815260206004820152603160248201527f506c61796572206d757374206861766520706172746963697061746520696e2060448201527f61637469766974696573206265666f726500000000000000000000000000000060648201526084016101da565b6040517fd45be3ae0000000000000000000000000000000000000000000000000000000081526001600160a01b03828116600483015283169063d45be3ae9060240160206040518083038186803b158015610ad657600080fd5b505afa158015610aea573d6000803e3d6000fd5b505050506040513d601f19601f82011682018060405250810190610b0e919061176e565b610b5a5760405162461bcd60e51b815260206004820152601f60248201527f506c61796572206d75737420686f6c64207469636b657473206265666f72650060448201526064016101da565b600154604051632d8cb27960e21b81526001600160a01b038381166004830152600292169063b632c9e49060240160006040518083038186803b158015610ba057600080fd5b505afa158015610bb4573d6000803e3d6000fd5b505050506040513d6000823e601f3d908101601f19168201604052610bdc91908101906116ae565b5110610c365760405162461bcd60e51b8152602060048201526024808201527f506c61796572206d75737420686f6c64206c657373207468616e2032207469636044820152636b65747360e01b60648201526084016101da565b60006064600160009054906101000a90046001600160a01b03166001600160a01b03166387bb7ae06040518163ffffffff1660e01b815260040160206040518083038186803b158015610c8857600080fd5b505afa158015610c9c573d6000803e3d6000fd5b505050506040513d601f19601f82011682018060405250810190610cc091906117c2565b610ccb90600a611894565b610cd59190611880565b6000546040516323b872dd60e01b81526001600160a01b038581166004830152306024830152604482018490529293509116906323b872dd90606401602060405180830381600087803b158015610d2b57600080fd5b505af1158015610d3f573d6000803e3d6000fd5b505050506040513d601f19601f82011682018060405250810190610d63919061176e565b5060005460025460405163a9059cbb60e01b81526001600160a01b0391821660048201526024810184905291169063a9059cbb90604401602060405180830381600087803b158015610db457600080fd5b505af1158015610dc8573d6000803e3d6000fd5b505050506040513d601f19601f82011682018060405250810190610dec919061176e565b5050600380546001810182556000919091527fc2575a0e9e593c00f959f8c92f12db2869c3395a3b0502d05e2516446f71f85b01805473ffffffffffffffffffffffffffffffffffffffff19166001600160a01b039290921691909117905550565b60606003805480602002602001604051908101604052809291908181526020018280548015610ea657602002820191906000526020600020905b81546001600160a01b03168152600190910190602001808311610e88575b5050505050905090565b600154604051632d8cb27960e21b81523360048201819052916002916001600160a01b039091169063b632c9e49060240160006040518083038186803b158015610ef957600080fd5b505afa158015610f0d573d6000803e3d6000fd5b505050506040513d6000823e601f3d908101601f19168201604052610f3591908101906116ae565b5110610f8f5760405162461bcd60e51b8152602060048201526024808201527f506c61796572206d75737420686f6c64206c657373207468616e2032207469636044820152636b65747360e01b60648201526084016101da565b60006064600160009054906101000a90046001600160a01b03166001600160a01b03166387bb7ae06040518163ffffffff1660e01b815260040160206040518083038186803b158015610fe157600080fd5b505afa158015610ff5573d6000803e3d6000fd5b505050506040513d601f19601f8201168201806040525081019061101991906117c2565b61102490600a611894565b61102e9190611880565b6000546040516323b872dd60e01b81526001600160a01b038581166004830152306024830152604482018490529293509116906323b872dd90606401602060405180830381600087803b15801561108457600080fd5b505af1158015611098573d6000803e3d6000fd5b505050506040513d601f19601f820116820180604052508101906110bc919061176e565b5060005460025460405163a9059cbb60e01b81526001600160a01b0391821660048201526024810184905291169063a9059cbb90604401602060405180830381600087803b15801561110d57600080fd5b505af1158015611121573d6000803e3d6000fd5b505050506040513d601f19601f82011682018060405250810190611145919061176e565b5050600380546001810182556000919091527fc2575a0e9e593c00f959f8c92f12db2869c3395a3b0502d05e2516446f71f85b01805473ffffffffffffffffffffffffffffffffffffffff19166001600160a01b0392909216919091179055565b6002546001600160a01b031633146112005760405162461bcd60e51b815260206004820152601660248201527f4f6e6c79204f7267616e697a6572204c6f74746572790000000000000000000060448201526064016101da565b600154604080517f0cdf1df700000000000000000000000000000000000000000000000000000000815290516000926001600160a01b031691630cdf1df7916004808301926020929190829003018186803b15801561125e57600080fd5b505afa158015611272573d6000803e3d6000fd5b505050506040513d601f19601f8201168201806040525081019061129691906117c2565b600354909150808211156112a8578091505b60005b82811015611628576003546000906112c1611657565b6112cb91906118e5565b90506000600382815481106112f057634e487b7160e01b600052603260045260246000fd5b600091825260209091200154600380546001600160a01b0390921692509061131a906001906118b3565b8154811061133857634e487b7160e01b600052603260045260246000fd5b600091825260209091200154600380546001600160a01b03909216918490811061137257634e487b7160e01b600052603260045260246000fd5b9060005260206000200160006101000a8154816001600160a01b0302191690836001600160a01b0316021790555060038054806113bf57634e487b7160e01b600052603160045260246000fd5b600082815260208082206000199084018101805473ffffffffffffffffffffffffffffffffffffffff191690559092019092556001546040805163043ddbd760e51b815290516064936001600160a01b03909316926387bb7ae09260048082019391829003018186803b15801561143557600080fd5b505afa158015611449573d6000803e3d6000fd5b505050506040513d601f19601f8201168201806040525081019061146d91906117c2565b61147890605a611894565b6114829190611880565b6000546040516323b872dd60e01b81526001600160a01b038581166004830152306024830152604482018490529293509116906323b872dd90606401602060405180830381600087803b1580156114d857600080fd5b505af11580156114ec573d6000803e3d6000fd5b505050506040513d601f19601f82011682018060405250810190611510919061176e565b5060005460025460405163a9059cbb60e01b81526001600160a01b0391821660048201526024810184905291169063a9059cbb90604401602060405180830381600087803b15801561156157600080fd5b505af1158015611575573d6000803e3d6000fd5b505050506040513d601f19601f82011682018060405250810190611599919061176e565b506001546040517f99411bee0000000000000000000000000000000000000000000000000000000081526001600160a01b038481166004830152909116906399411bee90602401600060405180830381600087803b1580156115fa57600080fd5b505af115801561160e573d6000803e3d6000fd5b505050505050508080611620906118ca565b9150506112ab565b505050565b6003818154811061163d57600080fd5b6000918252602090912001546001600160a01b0316905081565b600042600360405160200161166d929190611827565b6040516020818303038152906040528051906020012060001c905090565b60006020828403121561169c578081fd5b81516116a78161193b565b9392505050565b600060208083850312156116c0578182fd5b825167ffffffffffffffff808211156116d7578384fd5b818501915085601f8301126116ea578384fd5b8151818111156116fc576116fc611925565b8060051b604051601f19603f8301168101818110858211171561172157611721611925565b604052828152858101935084860182860187018a101561173f578788fd5b8795505b83861015611761578051855260019590950194938601938601611743565b5098975050505050505050565b60006020828403121561177f578081fd5b815180151581146116a7578182fd5b60006020828403121561179f578081fd5b81356116a78161193b565b6000602082840312156117bb578081fd5b5035919050565b6000602082840312156117d3578081fd5b5051919050565b6020808252825182820181905260009190848201906040850190845b8181101561181b5783516001600160a01b0316835292840192918401916001016117f6565b50909695505050505050565b60006040820184835260206040818501528185548084526060860191508685528285209350845b818110156118735784546001600160a01b03168352600194850194928401920161184e565b5090979650505050505050565b60008261188f5761188f61190f565b500490565b60008160001904831182151516156118ae576118ae6118f9565b500290565b6000828210156118c5576118c56118f9565b500390565b60006000198214156118de576118de6118f9565b5060010190565b6000826118f4576118f461190f565b500690565b634e487b7160e01b600052601160045260246000fd5b634e487b7160e01b600052601260045260246000fd5b634e487b7160e01b600052604160045260246000fd5b6001600160a01b038116811461195057600080fd5b5056fea26469706673582212207a9d44f79cf125d42495e1d41891087738900bb15c3c683a66c5cd47d02ecee464736f6c63430008030033",
  "linkReferences": {},
  "deployedLinkReferences": {}
}